{"contracts/OrderManagement.sol":{"OrderManagement":{"abi":[{"anonymous":false,"inputs":[{"indexed":false,"internalType":"uint256","name":"orderId","type":"uint256"},{"indexed":false,"internalType":"address","name":"buyer","type":"address"}],"name":"OrderCanceled","type":"event"},{"anonymous":false,"inputs":[{"indexed":false,"internalType":"uint256","name":"orderId","type":"uint256"},{"indexed":false,"internalType":"address","name":"buyer","type":"address"}],"name":"OrderCompleted","type":"event"},{"anonymous":false,"inputs":[{"indexed":false,"internalType":"uint256","name":"orderId","type":"uint256"},{"indexed":false,"internalType":"address","name":"buyer","type":"address"},{"indexed":false,"internalType":"uint256","name":"totalPrice","type":"uint256"}],"name":"OrderCreated","type":"event"},{"anonymous":false,"inputs":[{"indexed":false,"internalType":"uint256","name":"orderId","type":"uint256"},{"indexed":false,"internalType":"address","name":"seller","type":"address"},{"indexed":false,"internalType":"uint256","name":"amount","type":"uint256"}],"name":"PaymentTransferred","type":"event"},{"inputs":[{"internalType":"address","name":"","type":"address"},{"internalType":"uint256","name":"","type":"uint256"}],"name":"buyerOrders","outputs":[{"internalType":"uint256","name":"","type":"uint256"}],"stateMutability":"view","type":"function"},{"inputs":[{"internalType":"uint256","name":"_orderId","type":"uint256"}],"name":"cancelOrder","outputs":[],"stateMutability":"nonpayable","type":"function"},{"inputs":[{"internalType":"uint256","name":"_orderId","type":"uint256"}],"name":"completeOrder","outputs":[],"stateMutability":"nonpayable","type":"function"},{"inputs":[{"internalType":"address","name":"_buyer","type":"address"},{"internalType":"uint256","name":"_productId","type":"uint256"},{"internalType":"uint256","name":"_quantity","type":"uint256"},{"internalType":"uint256","name":"_price","type":"uint256"},{"internalType":"address","name":"_seller","type":"address"}],"name":"createOrder","outputs":[],"stateMutability":"payable","type":"function"},{"inputs":[],"name":"getAllOrders","outputs":[{"components":[{"internalType":"uint256","name":"id","type":"uint256"},{"components":[{"internalType":"uint256","name":"productId","type":"uint256"},{"internalType":"uint256","name":"quantity","type":"uint256"},{"internalType":"uint256","name":"price","type":"uint256"},{"internalType":"address","name":"seller","type":"address"}],"internalType":"struct OrderManagement.OrderItem","name":"item","type":"tuple"},{"internalType":"address","name":"buyer","type":"address"},{"internalType":"uint256","name":"totalPrice","type":"uint256"},{"internalType":"enum OrderManagement.OrderStatus","name":"status","type":"uint8"}],"internalType":"struct OrderManagement.Order[]","name":"","type":"tuple[]"}],"stateMutability":"view","type":"function"},{"inputs":[{"internalType":"address","name":"_buyer","type":"address"}],"name":"getBuyerOrders","outputs":[{"components":[{"internalType":"uint256","name":"id","type":"uint256"},{"components":[{"internalType":"uint256","name":"productId","type":"uint256"},{"internalType":"uint256","name":"quantity","type":"uint256"},{"internalType":"uint256","name":"price","type":"uint256"},{"internalType":"address","name":"seller","type":"address"}],"internalType":"struct OrderManagement.OrderItem","name":"item","type":"tuple"},{"internalType":"address","name":"buyer","type":"address"},{"internalType":"uint256","name":"totalPrice","type":"uint256"},{"internalType":"enum OrderManagement.OrderStatus","name":"status","type":"uint8"}],"internalType":"struct OrderManagement.Order[]","name":"","type":"tuple[]"}],"stateMutability":"view","type":"function"},{"inputs":[{"internalType":"uint256","name":"_orderId","type":"uint256"}],"name":"getOrderDetails","outputs":[{"components":[{"internalType":"uint256","name":"id","type":"uint256"},{"components":[{"internalType":"uint256","name":"productId","type":"uint256"},{"internalType":"uint256","name":"quantity","type":"uint256"},{"internalType":"uint256","name":"price","type":"uint256"},{"internalType":"address","name":"seller","type":"address"}],"internalType":"struct OrderManagement.OrderItem","name":"item","type":"tuple"},{"internalType":"address","name":"buyer","type":"address"},{"internalType":"uint256","name":"totalPrice","type":"uint256"},{"internalType":"enum OrderManagement.OrderStatus","name":"status","type":"uint8"}],"internalType":"struct OrderManagement.Order","name":"","type":"tuple"}],"stateMutability":"view","type":"function"},{"inputs":[{"internalType":"address","name":"_seller","type":"address"}],"name":"getSellerOrders","outputs":[{"components":[{"internalType":"uint256","name":"id","type":"uint256"},{"components":[{"internalType":"uint256","name":"productId","type":"uint256"},{"internalType":"uint256","name":"quantity","type":"uint256"},{"internalType":"uint256","name":"price","type":"uint256"},{"internalType":"address","name":"seller","type":"address"}],"internalType":"struct OrderManagement.OrderItem","name":"item","type":"tuple"},{"internalType":"address","name":"buyer","type":"address"},{"internalType":"uint256","name":"totalPrice","type":"uint256"},{"internalType":"enum OrderManagement.OrderStatus","name":"status","type":"uint8"}],"internalType":"struct OrderManagement.Order[]","name":"","type":"tuple[]"}],"stateMutability":"view","type":"function"},{"inputs":[],"name":"orderCount","outputs":[{"internalType":"uint256","name":"","type":"uint256"}],"stateMutability":"view","type":"function"},{"inputs":[{"internalType":"uint256","name":"","type":"uint256"}],"name":"orders","outputs":[{"internalType":"uint256","name":"id","type":"uint256"},{"components":[{"internalType":"uint256","name":"productId","type":"uint256"},{"internalType":"uint256","name":"quantity","type":"uint256"},{"internalType":"uint256","name":"price","type":"uint256"},{"internalType":"address","name":"seller","type":"address"}],"internalType":"struct OrderManagement.OrderItem","name":"item","type":"tuple"},{"internalType":"address","name":"buyer","type":"address"},{"internalType":"uint256","name":"totalPrice","type":"uint256"},{"internalType":"enum OrderManagement.OrderStatus","name":"status","type":"uint8"}],"stateMutability":"view","type":"function"},{"inputs":[{"internalType":"address","name":"","type":"address"},{"internalType":"uint256","name":"","type":"uint256"}],"name":"sellerOrders","outputs":[{"internalType":"uint256","name":"","type":"uint256"}],"stateMutability":"view","type":"function"}],"evm":{"bytecode":{"linkReferences":{},"object":"608060405260008055348015601357600080fd5b50611e76806100236000396000f3fe60806040526004361061009c5760003560e01c8063a45f2ebc11610064578063a45f2ebc1461019a578063a85c38ef146101d7578063b6adaaff14610218578063dbe11bb314610241578063e4cbac401461025d578063ec7dd7bb1461029a5761009c565b80632453ffa8146100a15780634500cb60146100cc57806345cb450514610109578063514fcac7146101465780637bea0d1c1461016f575b600080fd5b3480156100ad57600080fd5b506100b66102d7565b6040516100c391906114cc565b60405180910390f35b3480156100d857600080fd5b506100f360048036038101906100ee9190611576565b6102dd565b60405161010091906114cc565b60405180910390f35b34801561011557600080fd5b50610130600480360381019061012b9190611576565b61030e565b60405161013d91906114cc565b60405180910390f35b34801561015257600080fd5b5061016d600480360381019061016891906115b6565b61033f565b005b34801561017b57600080fd5b5061018461055d565b60405161019191906117e6565b60405180910390f35b3480156101a657600080fd5b506101c160048036038101906101bc9190611808565b610758565b6040516101ce91906117e6565b60405180910390f35b3480156101e357600080fd5b506101fe60048036038101906101f991906115b6565b6109ec565b60405161020f9594939291906118a8565b60405180910390f35b34801561022457600080fd5b5061023f600480360381019061023a91906115b6565b610acd565b005b61025b600480360381019061025691906118fc565b610c7c565b005b34801561026957600080fd5b50610284600480360381019061027f9190611808565b61102a565b60405161029191906117e6565b60405180910390f35b3480156102a657600080fd5b506102c160048036038101906102bc91906115b6565b6112be565b6040516102ce91906119e0565b60405180910390f35b60005481565b600260205281600052604060002081815481106102f957600080fd5b90600052602060002001600091509150505481565b6003602052816000526040600020818154811061032a57600080fd5b90600052602060002001600091509150505481565b60006001600083815260200190815260200160002090503373ffffffffffffffffffffffffffffffffffffffff168160050160009054906101000a900473ffffffffffffffffffffffffffffffffffffffff1673ffffffffffffffffffffffffffffffffffffffff16146103e8576040517f08c379a00000000000000000000000000000000000000000000000000000000081526004016103df90611a7f565b60405180910390fd5b600060028111156103fc576103fb611682565b5b8160070160009054906101000a900460ff1660028111156104205761041f611682565b5b14610460576040517f08c379a000000000000000000000000000000000000000000000000000000000815260040161045790611aeb565b60405180910390fd5b60028160070160006101000a81548160ff0219169083600281111561048857610487611682565b5b02179055508060050160009054906101000a900473ffffffffffffffffffffffffffffffffffffffff1673ffffffffffffffffffffffffffffffffffffffff166108fc82600601549081150290604051600060405180830381858888f193505050501580156104fb573d6000803e3d6000fd5b507f9384174c8517f5537b08e79211fc039e8a098571a3a2b4cb21dfa6f3237e8de1828260050160009054906101000a900473ffffffffffffffffffffffffffffffffffffffff16604051610551929190611b0b565b60405180910390a15050565b60606000805467ffffffffffffffff81111561057c5761057b611b34565b5b6040519080825280602002602001820160405280156105b557816020015b6105a2611418565b81526020019060019003908161059a5790505b5090506000600190505b600054811161075057600160008281526020019081526020016000206040518060a001604052908160008201548152602001600182016040518060800160405290816000820154815260200160018201548152602001600282015481526020016003820160009054906101000a900473ffffffffffffffffffffffffffffffffffffffff1673ffffffffffffffffffffffffffffffffffffffff1673ffffffffffffffffffffffffffffffffffffffff168152505081526020016005820160009054906101000a900473ffffffffffffffffffffffffffffffffffffffff1673ffffffffffffffffffffffffffffffffffffffff1673ffffffffffffffffffffffffffffffffffffffff168152602001600682015481526020016007820160009054906101000a900460ff1660028111156106fd576106fc611682565b5b600281111561070f5761070e611682565b5b81525050826001836107219190611b92565b8151811061073257610731611bc6565b5b6020026020010181905250808061074890611bf5565b9150506105bf565b508091505090565b60606000600260008473ffffffffffffffffffffffffffffffffffffffff1673ffffffffffffffffffffffffffffffffffffffff1681526020019081526020016000208054806020026020016040519081016040528092919081815260200182805480156107e557602002820191906000526020600020905b8154815260200190600101908083116107d1575b505050505090506000815167ffffffffffffffff81111561080957610808611b34565b5b60405190808252806020026020018201604052801561084257816020015b61082f611418565b8152602001906001900390816108275790505b50905060005b82518110156109e1576001600084838151811061086857610867611bc6565b5b602002602001015181526020019081526020016000206040518060a001604052908160008201548152602001600182016040518060800160405290816000820154815260200160018201548152602001600282015481526020016003820160009054906101000a900473ffffffffffffffffffffffffffffffffffffffff1673ffffffffffffffffffffffffffffffffffffffff1673ffffffffffffffffffffffffffffffffffffffff168152505081526020016005820160009054906101000a900473ffffffffffffffffffffffffffffffffffffffff1673ffffffffffffffffffffffffffffffffffffffff1673ffffffffffffffffffffffffffffffffffffffff168152602001600682015481526020016007820160009054906101000a900460ff1660028111156109a05761099f611682565b5b60028111156109b2576109b1611682565b5b815250508282815181106109c9576109c8611bc6565b5b60200260200101819052508080600101915050610848565b508092505050919050565b6001602052806000526040600020600091509050806000015490806001016040518060800160405290816000820154815260200160018201548152602001600282015481526020016003820160009054906101000a900473ffffffffffffffffffffffffffffffffffffffff1673ffffffffffffffffffffffffffffffffffffffff1673ffffffffffffffffffffffffffffffffffffffff1681525050908060050160009054906101000a900473ffffffffffffffffffffffffffffffffffffffff16908060060154908060070160009054906101000a900460ff16905085565b60006001600083815260200190815260200160002090503373ffffffffffffffffffffffffffffffffffffffff168160050160009054906101000a900473ffffffffffffffffffffffffffffffffffffffff1673ffffffffffffffffffffffffffffffffffffffff1614610b76576040517f08c379a0000000000000000000000000000000000000000000000000000000008152600401610b6d90611a7f565b60405180910390fd5b60006002811115610b8a57610b89611682565b5b8160070160009054906101000a900460ff166002811115610bae57610bad611682565b5b14610bee576040517f08c379a0000000000000000000000000000000000000000000000000000000008152600401610be590611c89565b60405180910390fd5b60018160070160006101000a81548160ff02191690836002811115610c1657610c15611682565b5b02179055507f19800bcb0ac4476f8c5dc58e76aa820026d28a52f87da5213e57d16b75ae0de9828260050160009054906101000a900473ffffffffffffffffffffffffffffffffffffffff16604051610c70929190611b0b565b60405180910390a15050565b60008383610c8a9190611ca9565b9050803414610cce576040517f08c379a0000000000000000000000000000000000000000000000000000000008152600401610cc590611d37565b60405180910390fd5b600080815480929190610ce090611bf5565b91905055506000600160008054815260200190815260200160002090506000548160000181905550868160050160006101000a81548173ffffffffffffffffffffffffffffffffffffffff021916908373ffffffffffffffffffffffffffffffffffffffff16021790555081816006018190555060008160070160006101000a81548160ff02191690836002811115610d7c57610d7b611682565b5b0217905550600060405180608001604052808881526020018781526020018681526020018573ffffffffffffffffffffffffffffffffffffffff168152509050808260010160008201518160000155602082015181600101556040820151816002015560608201518160030160006101000a81548173ffffffffffffffffffffffffffffffffffffffff021916908373ffffffffffffffffffffffffffffffffffffffff16021790555090505060008473ffffffffffffffffffffffffffffffffffffffff1684604051610e4f90611d88565b60006040518083038185875af1925050503d8060008114610e8c576040519150601f19603f3d011682016040523d82523d6000602084013e610e91565b606091505b5050905080610ed5576040517f08c379a0000000000000000000000000000000000000000000000000000000008152600401610ecc90611de9565b60405180910390fd5b7f64768e2ac08926aed9a23761ef7cf9bb1c7d9971cfab10846bb88ceb9353c5936000548686604051610f0a93929190611e09565b60405180910390a1600260008a73ffffffffffffffffffffffffffffffffffffffff1673ffffffffffffffffffffffffffffffffffffffff1681526020019081526020016000206000549080600181540180825580915050600190039060005260206000200160009091909190915055600360008673ffffffffffffffffffffffffffffffffffffffff1673ffffffffffffffffffffffffffffffffffffffff16815260200190815260200160002060005490806001815401808255809150506001900390600052602060002001600090919091909150557f28eb86fd03c9bd96a8a83e4a46ab2ad257b70cea893d98ad6d482e96aa25fad06000548a8660405161101793929190611e09565b60405180910390a1505050505050505050565b60606000600360008473ffffffffffffffffffffffffffffffffffffffff1673ffffffffffffffffffffffffffffffffffffffff1681526020019081526020016000208054806020026020016040519081016040528092919081815260200182805480156110b757602002820191906000526020600020905b8154815260200190600101908083116110a3575b505050505090506000815167ffffffffffffffff8111156110db576110da611b34565b5b60405190808252806020026020018201604052801561111457816020015b611101611418565b8152602001906001900390816110f95790505b50905060005b82518110156112b3576001600084838151811061113a57611139611bc6565b5b602002602001015181526020019081526020016000206040518060a001604052908160008201548152602001600182016040518060800160405290816000820154815260200160018201548152602001600282015481526020016003820160009054906101000a900473ffffffffffffffffffffffffffffffffffffffff1673ffffffffffffffffffffffffffffffffffffffff1673ffffffffffffffffffffffffffffffffffffffff168152505081526020016005820160009054906101000a900473ffffffffffffffffffffffffffffffffffffffff1673ffffffffffffffffffffffffffffffffffffffff1673ffffffffffffffffffffffffffffffffffffffff168152602001600682015481526020016007820160009054906101000a900460ff16600281111561127257611271611682565b5b600281111561128457611283611682565b5b8152505082828151811061129b5761129a611bc6565b5b6020026020010181905250808060010191505061111a565b508092505050919050565b6112c6611418565b600160008381526020019081526020016000206040518060a001604052908160008201548152602001600182016040518060800160405290816000820154815260200160018201548152602001600282015481526020016003820160009054906101000a900473ffffffffffffffffffffffffffffffffffffffff1673ffffffffffffffffffffffffffffffffffffffff1673ffffffffffffffffffffffffffffffffffffffff168152505081526020016005820160009054906101000a900473ffffffffffffffffffffffffffffffffffffffff1673ffffffffffffffffffffffffffffffffffffffff1673ffffffffffffffffffffffffffffffffffffffff168152602001600682015481526020016007820160009054906101000a900460ff1660028111156113fb576113fa611682565b5b600281111561140d5761140c611682565b5b815250509050919050565b6040518060a0016040528060008152602001611432611475565b8152602001600073ffffffffffffffffffffffffffffffffffffffff168152602001600081526020016000600281111561146f5761146e611682565b5b81525090565b6040518060800160405280600081526020016000815260200160008152602001600073ffffffffffffffffffffffffffffffffffffffff1681525090565b6000819050919050565b6114c6816114b3565b82525050565b60006020820190506114e160008301846114bd565b92915050565b600080fd5b600073ffffffffffffffffffffffffffffffffffffffff82169050919050565b6000611517826114ec565b9050919050565b6115278161150c565b811461153257600080fd5b50565b6000813590506115448161151e565b92915050565b611553816114b3565b811461155e57600080fd5b50565b6000813590506115708161154a565b92915050565b6000806040838503121561158d5761158c6114e7565b5b600061159b85828601611535565b92505060206115ac85828601611561565b9150509250929050565b6000602082840312156115cc576115cb6114e7565b5b60006115da84828501611561565b91505092915050565b600081519050919050565b600082825260208201905092915050565b6000819050602082019050919050565b611618816114b3565b82525050565b6116278161150c565b82525050565b608082016000820151611643600085018261160f565b506020820151611656602085018261160f565b506040820151611669604085018261160f565b50606082015161167c606085018261161e565b50505050565b7f4e487b7100000000000000000000000000000000000000000000000000000000600052602160045260246000fd5b600381106116c2576116c1611682565b5b50565b60008190506116d3826116b1565b919050565b60006116e3826116c5565b9050919050565b6116f3816116d8565b82525050565b61010082016000820151611710600085018261160f565b506020820151611723602085018261162d565b50604082015161173660a085018261161e565b50606082015161174960c085018261160f565b50608082015161175c60e08501826116ea565b50505050565b600061176e83836116f9565b6101008301905092915050565b6000602082019050919050565b6000611793826115e3565b61179d81856115ee565b93506117a8836115ff565b8060005b838110156117d95781516117c08882611762565b97506117cb8361177b565b9250506001810190506117ac565b5085935050505092915050565b600060208201905081810360008301526118008184611788565b905092915050565b60006020828403121561181e5761181d6114e7565b5b600061182c84828501611535565b91505092915050565b60808201600082015161184b600085018261160f565b50602082015161185e602085018261160f565b506040820151611871604085018261160f565b506060820151611884606085018261161e565b50505050565b6118938161150c565b82525050565b6118a2816116d8565b82525050565b6000610100820190506118be60008301886114bd565b6118cb6020830187611835565b6118d860a083018661188a565b6118e560c08301856114bd565b6118f260e0830184611899565b9695505050505050565b600080600080600060a08688031215611918576119176114e7565b5b600061192688828901611535565b955050602061193788828901611561565b945050604061194888828901611561565b935050606061195988828901611561565b925050608061196a88828901611535565b9150509295509295909350565b6101008201600082015161198e600085018261160f565b5060208201516119a1602085018261162d565b5060408201516119b460a085018261161e565b5060608201516119c760c085018261160f565b5060808201516119da60e08501826116ea565b50505050565b6000610100820190506119f66000830184611977565b92915050565b600082825260208201905092915050565b7f596f7520617265206e6f7420746865206275796572206f662074686973206f7260008201527f6465720000000000000000000000000000000000000000000000000000000000602082015250565b6000611a696023836119fc565b9150611a7482611a0d565b604082019050919050565b60006020820190508181036000830152611a9881611a5c565b9050919050565b7f4f726465722063616e6e6f742062652063616e63656c65640000000000000000600082015250565b6000611ad56018836119fc565b9150611ae082611a9f565b602082019050919050565b60006020820190508181036000830152611b0481611ac8565b9050919050565b6000604082019050611b2060008301856114bd565b611b2d602083018461188a565b9392505050565b7f4e487b7100000000000000000000000000000000000000000000000000000000600052604160045260246000fd5b7f4e487b7100000000000000000000000000000000000000000000000000000000600052601160045260246000fd5b6000611b9d826114b3565b9150611ba8836114b3565b9250828203905081811115611bc057611bbf611b63565b5b92915050565b7f4e487b7100000000000000000000000000000000000000000000000000000000600052603260045260246000fd5b6000611c00826114b3565b91507fffffffffffffffffffffffffffffffffffffffffffffffffffffffffffffffff8203611c3257611c31611b63565b5b600182019050919050565b7f4f72646572206973206e6f742070656e64696e67000000000000000000000000600082015250565b6000611c736014836119fc565b9150611c7e82611c3d565b602082019050919050565b60006020820190508181036000830152611ca281611c66565b9050919050565b6000611cb4826114b3565b9150611cbf836114b3565b9250828202611ccd816114b3565b91508282048414831517611ce457611ce3611b63565b5b5092915050565b7f496e636f7272656374207061796d656e7420616d6f756e740000000000000000600082015250565b6000611d216018836119fc565b9150611d2c82611ceb565b602082019050919050565b60006020820190508181036000830152611d5081611d14565b9050919050565b600081905092915050565b50565b6000611d72600083611d57565b9150611d7d82611d62565b600082019050919050565b6000611d9382611d65565b9150819050919050565b7f5472616e7366657220746f2073656c6c6572206661696c656400000000000000600082015250565b6000611dd36019836119fc565b9150611dde82611d9d565b602082019050919050565b60006020820190508181036000830152611e0281611dc6565b9050919050565b6000606082019050611e1e60008301866114bd565b611e2b602083018561188a565b611e3860408301846114bd565b94935050505056fea2646970667358221220ff31d471ebb779d8b44be3c95b1329dbb19038355b52ff3d7ddc786787ea3c0864736f6c634300081b0033","opcodes":"PUSH1 0x80 PUSH1 0x40 MSTORE PUSH1 0x0 DUP1 SSTORE CALLVALUE DUP1 ISZERO PUSH1 0x13 JUMPI PUSH1 0x0 DUP1 REVERT JUMPDEST POP PUSH2 0x1E76 DUP1 PUSH2 0x23 PUSH1 0x0 CODECOPY PUSH1 0x0 RETURN INVALID PUSH1 0x80 PUSH1 0x40 MSTORE PUSH1 0x4 CALLDATASIZE LT PUSH2 0x9C JUMPI PUSH1 0x0 CALLDATALOAD PUSH1 0xE0 SHR DUP1 PUSH4 0xA45F2EBC GT PUSH2 0x64 JUMPI DUP1 PUSH4 0xA45F2EBC EQ PUSH2 0x19A JUMPI DUP1 PUSH4 0xA85C38EF EQ PUSH2 0x1D7 JUMPI DUP1 PUSH4 0xB6ADAAFF EQ PUSH2 0x218 JUMPI DUP1 PUSH4 0xDBE11BB3 EQ PUSH2 0x241 JUMPI DUP1 PUSH4 0xE4CBAC40 EQ PUSH2 0x25D JUMPI DUP1 PUSH4 0xEC7DD7BB EQ PUSH2 0x29A JUMPI PUSH2 0x9C JUMP JUMPDEST DUP1 PUSH4 0x2453FFA8 EQ PUSH2 0xA1 JUMPI DUP1 PUSH4 0x4500CB60 EQ PUSH2 0xCC JUMPI DUP1 PUSH4 0x45CB4505 EQ PUSH2 0x109 JUMPI DUP1 PUSH4 0x514FCAC7 EQ PUSH2 0x146 JUMPI DUP1 PUSH4 0x7BEA0D1C EQ PUSH2 0x16F JUMPI JUMPDEST PUSH1 0x0 DUP1 REVERT JUMPDEST CALLVALUE DUP1 ISZERO PUSH2 0xAD JUMPI PUSH1 0x0 DUP1 REVERT JUMPDEST POP PUSH2 0xB6 PUSH2 0x2D7 JUMP JUMPDEST PUSH1 0x40 MLOAD PUSH2 0xC3 SWAP2 SWAP1 PUSH2 0x14CC JUMP JUMPDEST PUSH1 0x40 MLOAD DUP1 SWAP2 SUB SWAP1 RETURN JUMPDEST CALLVALUE DUP1 ISZERO PUSH2 0xD8 JUMPI PUSH1 0x0 DUP1 REVERT JUMPDEST POP PUSH2 0xF3 PUSH1 0x4 DUP1 CALLDATASIZE SUB DUP2 ADD SWAP1 PUSH2 0xEE SWAP2 SWAP1 PUSH2 0x1576 JUMP JUMPDEST PUSH2 0x2DD JUMP JUMPDEST PUSH1 0x40 MLOAD PUSH2 0x100 SWAP2 SWAP1 PUSH2 0x14CC JUMP JUMPDEST PUSH1 0x40 MLOAD DUP1 SWAP2 SUB SWAP1 RETURN JUMPDEST CALLVALUE DUP1 ISZERO PUSH2 0x115 JUMPI PUSH1 0x0 DUP1 REVERT JUMPDEST POP PUSH2 0x130 PUSH1 0x4 DUP1 CALLDATASIZE SUB DUP2 ADD SWAP1 PUSH2 0x12B SWAP2 SWAP1 PUSH2 0x1576 JUMP JUMPDEST PUSH2 0x30E JUMP JUMPDEST PUSH1 0x40 MLOAD PUSH2 0x13D SWAP2 SWAP1 PUSH2 0x14CC JUMP JUMPDEST PUSH1 0x40 MLOAD DUP1 SWAP2 SUB SWAP1 RETURN JUMPDEST CALLVALUE DUP1 ISZERO PUSH2 0x152 JUMPI PUSH1 0x0 DUP1 REVERT JUMPDEST POP PUSH2 0x16D PUSH1 0x4 DUP1 CALLDATASIZE SUB DUP2 ADD SWAP1 PUSH2 0x168 SWAP2 SWAP1 PUSH2 0x15B6 JUMP JUMPDEST PUSH2 0x33F JUMP JUMPDEST STOP JUMPDEST CALLVALUE DUP1 ISZERO PUSH2 0x17B JUMPI PUSH1 0x0 DUP1 REVERT JUMPDEST POP PUSH2 0x184 PUSH2 0x55D JUMP JUMPDEST PUSH1 0x40 MLOAD PUSH2 0x191 SWAP2 SWAP1 PUSH2 0x17E6 JUMP JUMPDEST PUSH1 0x40 MLOAD DUP1 SWAP2 SUB SWAP1 RETURN JUMPDEST CALLVALUE DUP1 ISZERO PUSH2 0x1A6 JUMPI PUSH1 0x0 DUP1 REVERT JUMPDEST POP PUSH2 0x1C1 PUSH1 0x4 DUP1 CALLDATASIZE SUB DUP2 ADD SWAP1 PUSH2 0x1BC SWAP2 SWAP1 PUSH2 0x1808 JUMP JUMPDEST PUSH2 0x758 JUMP JUMPDEST PUSH1 0x40 MLOAD PUSH2 0x1CE SWAP2 SWAP1 PUSH2 0x17E6 JUMP JUMPDEST PUSH1 0x40 MLOAD DUP1 SWAP2 SUB SWAP1 RETURN JUMPDEST CALLVALUE DUP1 ISZERO PUSH2 0x1E3 JUMPI PUSH1 0x0 DUP1 REVERT JUMPDEST POP PUSH2 0x1FE PUSH1 0x4 DUP1 CALLDATASIZE SUB DUP2 ADD SWAP1 PUSH2 0x1F9 SWAP2 SWAP1 PUSH2 0x15B6 JUMP JUMPDEST PUSH2 0x9EC JUMP JUMPDEST PUSH1 0x40 MLOAD PUSH2 0x20F SWAP6 SWAP5 SWAP4 SWAP3 SWAP2 SWAP1 PUSH2 0x18A8 JUMP JUMPDEST PUSH1 0x40 MLOAD DUP1 SWAP2 SUB SWAP1 RETURN JUMPDEST CALLVALUE DUP1 ISZERO PUSH2 0x224 JUMPI PUSH1 0x0 DUP1 REVERT JUMPDEST POP PUSH2 0x23F PUSH1 0x4 DUP1 CALLDATASIZE SUB DUP2 ADD SWAP1 PUSH2 0x23A SWAP2 SWAP1 PUSH2 0x15B6 JUMP JUMPDEST PUSH2 0xACD JUMP JUMPDEST STOP JUMPDEST PUSH2 0x25B PUSH1 0x4 DUP1 CALLDATASIZE SUB DUP2 ADD SWAP1 PUSH2 0x256 SWAP2 SWAP1 PUSH2 0x18FC JUMP JUMPDEST PUSH2 0xC7C JUMP JUMPDEST STOP JUMPDEST CALLVALUE DUP1 ISZERO PUSH2 0x269 JUMPI PUSH1 0x0 DUP1 REVERT JUMPDEST POP PUSH2 0x284 PUSH1 0x4 DUP1 CALLDATASIZE SUB DUP2 ADD SWAP1 PUSH2 0x27F SWAP2 SWAP1 PUSH2 0x1808 JUMP JUMPDEST PUSH2 0x102A JUMP JUMPDEST PUSH1 0x40 MLOAD PUSH2 0x291 SWAP2 SWAP1 PUSH2 0x17E6 JUMP JUMPDEST PUSH1 0x40 MLOAD DUP1 SWAP2 SUB SWAP1 RETURN JUMPDEST CALLVALUE DUP1 ISZERO PUSH2 0x2A6 JUMPI PUSH1 0x0 DUP1 REVERT JUMPDEST POP PUSH2 0x2C1 PUSH1 0x4 DUP1 CALLDATASIZE SUB DUP2 ADD SWAP1 PUSH2 0x2BC SWAP2 SWAP1 PUSH2 0x15B6 JUMP JUMPDEST PUSH2 0x12BE JUMP JUMPDEST PUSH1 0x40 MLOAD PUSH2 0x2CE SWAP2 SWAP1 PUSH2 0x19E0 JUMP JUMPDEST PUSH1 0x40 MLOAD DUP1 SWAP2 SUB SWAP1 RETURN JUMPDEST PUSH1 0x0 SLOAD DUP2 JUMP JUMPDEST PUSH1 0x2 PUSH1 0x20 MSTORE DUP2 PUSH1 0x0 MSTORE PUSH1 0x40 PUSH1 0x0 KECCAK256 DUP2 DUP2 SLOAD DUP2 LT PUSH2 0x2F9 JUMPI PUSH1 0x0 DUP1 REVERT JUMPDEST SWAP1 PUSH1 0x0 MSTORE PUSH1 0x20 PUSH1 0x0 KECCAK256 ADD PUSH1 0x0 SWAP2 POP SWAP2 POP POP SLOAD DUP2 JUMP JUMPDEST PUSH1 0x3 PUSH1 0x20 MSTORE DUP2 PUSH1 0x0 MSTORE PUSH1 0x40 PUSH1 0x0 KECCAK256 DUP2 DUP2 SLOAD DUP2 LT PUSH2 0x32A JUMPI PUSH1 0x0 DUP1 REVERT JUMPDEST SWAP1 PUSH1 0x0 MSTORE PUSH1 0x20 PUSH1 0x0 KECCAK256 ADD PUSH1 0x0 SWAP2 POP SWAP2 POP POP SLOAD DUP2 JUMP JUMPDEST PUSH1 0x0 PUSH1 0x1 PUSH1 0x0 DUP4 DUP2 MSTORE PUSH1 0x20 ADD SWAP1 DUP2 MSTORE PUSH1 0x20 ADD PUSH1 0x0 KECCAK256 SWAP1 POP CALLER PUSH20 0xFFFFFFFFFFFFFFFFFFFFFFFFFFFFFFFFFFFFFFFF AND DUP2 PUSH1 0x5 ADD PUSH1 0x0 SWAP1 SLOAD SWAP1 PUSH2 0x100 EXP SWAP1 DIV PUSH20 0xFFFFFFFFFFFFFFFFFFFFFFFFFFFFFFFFFFFFFFFF AND PUSH20 0xFFFFFFFFFFFFFFFFFFFFFFFFFFFFFFFFFFFFFFFF AND EQ PUSH2 0x3E8 JUMPI PUSH1 0x40 MLOAD PUSH32 0x8C379A000000000000000000000000000000000000000000000000000000000 DUP2 MSTORE PUSH1 0x4 ADD PUSH2 0x3DF SWAP1 PUSH2 0x1A7F JUMP JUMPDEST PUSH1 0x40 MLOAD DUP1 SWAP2 SUB SWAP1 REVERT JUMPDEST PUSH1 0x0 PUSH1 0x2 DUP2 GT ISZERO PUSH2 0x3FC JUMPI PUSH2 0x3FB PUSH2 0x1682 JUMP JUMPDEST JUMPDEST DUP2 PUSH1 0x7 ADD PUSH1 0x0 SWAP1 SLOAD SWAP1 PUSH2 0x100 EXP SWAP1 DIV PUSH1 0xFF AND PUSH1 0x2 DUP2 GT ISZERO PUSH2 0x420 JUMPI PUSH2 0x41F PUSH2 0x1682 JUMP JUMPDEST JUMPDEST EQ PUSH2 0x460 JUMPI PUSH1 0x40 MLOAD PUSH32 0x8C379A000000000000000000000000000000000000000000000000000000000 DUP2 MSTORE PUSH1 0x4 ADD PUSH2 0x457 SWAP1 PUSH2 0x1AEB JUMP JUMPDEST PUSH1 0x40 MLOAD DUP1 SWAP2 SUB SWAP1 REVERT JUMPDEST PUSH1 0x2 DUP2 PUSH1 0x7 ADD PUSH1 0x0 PUSH2 0x100 EXP DUP2 SLOAD DUP2 PUSH1 0xFF MUL NOT AND SWAP1 DUP4 PUSH1 0x2 DUP2 GT ISZERO PUSH2 0x488 JUMPI PUSH2 0x487 PUSH2 0x1682 JUMP JUMPDEST JUMPDEST MUL OR SWAP1 SSTORE POP DUP1 PUSH1 0x5 ADD PUSH1 0x0 SWAP1 SLOAD SWAP1 PUSH2 0x100 EXP SWAP1 DIV PUSH20 0xFFFFFFFFFFFFFFFFFFFFFFFFFFFFFFFFFFFFFFFF AND PUSH20 0xFFFFFFFFFFFFFFFFFFFFFFFFFFFFFFFFFFFFFFFF AND PUSH2 0x8FC DUP3 PUSH1 0x6 ADD SLOAD SWAP1 DUP2 ISZERO MUL SWAP1 PUSH1 0x40 MLOAD PUSH1 0x0 PUSH1 0x40 MLOAD DUP1 DUP4 SUB DUP2 DUP6 DUP9 DUP9 CALL SWAP4 POP POP POP POP ISZERO DUP1 ISZERO PUSH2 0x4FB JUMPI RETURNDATASIZE PUSH1 0x0 DUP1 RETURNDATACOPY RETURNDATASIZE PUSH1 0x0 REVERT JUMPDEST POP PUSH32 0x9384174C8517F5537B08E79211FC039E8A098571A3A2B4CB21DFA6F3237E8DE1 DUP3 DUP3 PUSH1 0x5 ADD PUSH1 0x0 SWAP1 SLOAD SWAP1 PUSH2 0x100 EXP SWAP1 DIV PUSH20 0xFFFFFFFFFFFFFFFFFFFFFFFFFFFFFFFFFFFFFFFF AND PUSH1 0x40 MLOAD PUSH2 0x551 SWAP3 SWAP2 SWAP1 PUSH2 0x1B0B JUMP JUMPDEST PUSH1 0x40 MLOAD DUP1 SWAP2 SUB SWAP1 LOG1 POP POP JUMP JUMPDEST PUSH1 0x60 PUSH1 0x0 DUP1 SLOAD PUSH8 0xFFFFFFFFFFFFFFFF DUP2 GT ISZERO PUSH2 0x57C JUMPI PUSH2 0x57B PUSH2 0x1B34 JUMP JUMPDEST JUMPDEST PUSH1 0x40 MLOAD SWAP1 DUP1 DUP3 MSTORE DUP1 PUSH1 0x20 MUL PUSH1 0x20 ADD DUP3 ADD PUSH1 0x40 MSTORE DUP1 ISZERO PUSH2 0x5B5 JUMPI DUP2 PUSH1 0x20 ADD JUMPDEST PUSH2 0x5A2 PUSH2 0x1418 JUMP JUMPDEST DUP2 MSTORE PUSH1 0x20 ADD SWAP1 PUSH1 0x1 SWAP1 SUB SWAP1 DUP2 PUSH2 0x59A JUMPI SWAP1 POP JUMPDEST POP SWAP1 POP PUSH1 0x0 PUSH1 0x1 SWAP1 POP JUMPDEST PUSH1 0x0 SLOAD DUP2 GT PUSH2 0x750 JUMPI PUSH1 0x1 PUSH1 0x0 DUP3 DUP2 MSTORE PUSH1 0x20 ADD SWAP1 DUP2 MSTORE PUSH1 0x20 ADD PUSH1 0x0 KECCAK256 PUSH1 0x40 MLOAD DUP1 PUSH1 0xA0 ADD PUSH1 0x40 MSTORE SWAP1 DUP2 PUSH1 0x0 DUP3 ADD SLOAD DUP2 MSTORE PUSH1 0x20 ADD PUSH1 0x1 DUP3 ADD PUSH1 0x40 MLOAD DUP1 PUSH1 0x80 ADD PUSH1 0x40 MSTORE SWAP1 DUP2 PUSH1 0x0 DUP3 ADD SLOAD DUP2 MSTORE PUSH1 0x20 ADD PUSH1 0x1 DUP3 ADD SLOAD DUP2 MSTORE PUSH1 0x20 ADD PUSH1 0x2 DUP3 ADD SLOAD DUP2 MSTORE PUSH1 0x20 ADD PUSH1 0x3 DUP3 ADD PUSH1 0x0 SWAP1 SLOAD SWAP1 PUSH2 0x100 EXP SWAP1 DIV PUSH20 0xFFFFFFFFFFFFFFFFFFFFFFFFFFFFFFFFFFFFFFFF AND PUSH20 0xFFFFFFFFFFFFFFFFFFFFFFFFFFFFFFFFFFFFFFFF AND PUSH20 0xFFFFFFFFFFFFFFFFFFFFFFFFFFFFFFFFFFFFFFFF AND DUP2 MSTORE POP POP DUP2 MSTORE PUSH1 0x20 ADD PUSH1 0x5 DUP3 ADD PUSH1 0x0 SWAP1 SLOAD SWAP1 PUSH2 0x100 EXP SWAP1 DIV PUSH20 0xFFFFFFFFFFFFFFFFFFFFFFFFFFFFFFFFFFFFFFFF AND PUSH20 0xFFFFFFFFFFFFFFFFFFFFFFFFFFFFFFFFFFFFFFFF AND PUSH20 0xFFFFFFFFFFFFFFFFFFFFFFFFFFFFFFFFFFFFFFFF AND DUP2 MSTORE PUSH1 0x20 ADD PUSH1 0x6 DUP3 ADD SLOAD DUP2 MSTORE PUSH1 0x20 ADD PUSH1 0x7 DUP3 ADD PUSH1 0x0 SWAP1 SLOAD SWAP1 PUSH2 0x100 EXP SWAP1 DIV PUSH1 0xFF AND PUSH1 0x2 DUP2 GT ISZERO PUSH2 0x6FD JUMPI PUSH2 0x6FC PUSH2 0x1682 JUMP JUMPDEST JUMPDEST PUSH1 0x2 DUP2 GT ISZERO PUSH2 0x70F JUMPI PUSH2 0x70E PUSH2 0x1682 JUMP JUMPDEST JUMPDEST DUP2 MSTORE POP POP DUP3 PUSH1 0x1 DUP4 PUSH2 0x721 SWAP2 SWAP1 PUSH2 0x1B92 JUMP JUMPDEST DUP2 MLOAD DUP2 LT PUSH2 0x732 JUMPI PUSH2 0x731 PUSH2 0x1BC6 JUMP JUMPDEST JUMPDEST PUSH1 0x20 MUL PUSH1 0x20 ADD ADD DUP2 SWAP1 MSTORE POP DUP1 DUP1 PUSH2 0x748 SWAP1 PUSH2 0x1BF5 JUMP JUMPDEST SWAP2 POP POP PUSH2 0x5BF JUMP JUMPDEST POP DUP1 SWAP2 POP POP SWAP1 JUMP JUMPDEST PUSH1 0x60 PUSH1 0x0 PUSH1 0x2 PUSH1 0x0 DUP5 PUSH20 0xFFFFFFFFFFFFFFFFFFFFFFFFFFFFFFFFFFFFFFFF AND PUSH20 0xFFFFFFFFFFFFFFFFFFFFFFFFFFFFFFFFFFFFFFFF AND DUP2 MSTORE PUSH1 0x20 ADD SWAP1 DUP2 MSTORE PUSH1 0x20 ADD PUSH1 0x0 KECCAK256 DUP1 SLOAD DUP1 PUSH1 0x20 MUL PUSH1 0x20 ADD PUSH1 0x40 MLOAD SWAP1 DUP2 ADD PUSH1 0x40 MSTORE DUP1 SWAP3 SWAP2 SWAP1 DUP2 DUP2 MSTORE PUSH1 0x20 ADD DUP3 DUP1 SLOAD DUP1 ISZERO PUSH2 0x7E5 JUMPI PUSH1 0x20 MUL DUP3 ADD SWAP2 SWAP1 PUSH1 0x0 MSTORE PUSH1 0x20 PUSH1 0x0 KECCAK256 SWAP1 JUMPDEST DUP2 SLOAD DUP2 MSTORE PUSH1 0x20 ADD SWAP1 PUSH1 0x1 ADD SWAP1 DUP1 DUP4 GT PUSH2 0x7D1 JUMPI JUMPDEST POP POP POP POP POP SWAP1 POP PUSH1 0x0 DUP2 MLOAD PUSH8 0xFFFFFFFFFFFFFFFF DUP2 GT ISZERO PUSH2 0x809 JUMPI PUSH2 0x808 PUSH2 0x1B34 JUMP JUMPDEST JUMPDEST PUSH1 0x40 MLOAD SWAP1 DUP1 DUP3 MSTORE DUP1 PUSH1 0x20 MUL PUSH1 0x20 ADD DUP3 ADD PUSH1 0x40 MSTORE DUP1 ISZERO PUSH2 0x842 JUMPI DUP2 PUSH1 0x20 ADD JUMPDEST PUSH2 0x82F PUSH2 0x1418 JUMP JUMPDEST DUP2 MSTORE PUSH1 0x20 ADD SWAP1 PUSH1 0x1 SWAP1 SUB SWAP1 DUP2 PUSH2 0x827 JUMPI SWAP1 POP JUMPDEST POP SWAP1 POP PUSH1 0x0 JUMPDEST DUP3 MLOAD DUP2 LT ISZERO PUSH2 0x9E1 JUMPI PUSH1 0x1 PUSH1 0x0 DUP5 DUP4 DUP2 MLOAD DUP2 LT PUSH2 0x868 JUMPI PUSH2 0x867 PUSH2 0x1BC6 JUMP JUMPDEST JUMPDEST PUSH1 0x20 MUL PUSH1 0x20 ADD ADD MLOAD DUP2 MSTORE PUSH1 0x20 ADD SWAP1 DUP2 MSTORE PUSH1 0x20 ADD PUSH1 0x0 KECCAK256 PUSH1 0x40 MLOAD DUP1 PUSH1 0xA0 ADD PUSH1 0x40 MSTORE SWAP1 DUP2 PUSH1 0x0 DUP3 ADD SLOAD DUP2 MSTORE PUSH1 0x20 ADD PUSH1 0x1 DUP3 ADD PUSH1 0x40 MLOAD DUP1 PUSH1 0x80 ADD PUSH1 0x40 MSTORE SWAP1 DUP2 PUSH1 0x0 DUP3 ADD SLOAD DUP2 MSTORE PUSH1 0x20 ADD PUSH1 0x1 DUP3 ADD SLOAD DUP2 MSTORE PUSH1 0x20 ADD PUSH1 0x2 DUP3 ADD SLOAD DUP2 MSTORE PUSH1 0x20 ADD PUSH1 0x3 DUP3 ADD PUSH1 0x0 SWAP1 SLOAD SWAP1 PUSH2 0x100 EXP SWAP1 DIV PUSH20 0xFFFFFFFFFFFFFFFFFFFFFFFFFFFFFFFFFFFFFFFF AND PUSH20 0xFFFFFFFFFFFFFFFFFFFFFFFFFFFFFFFFFFFFFFFF AND PUSH20 0xFFFFFFFFFFFFFFFFFFFFFFFFFFFFFFFFFFFFFFFF AND DUP2 MSTORE POP POP DUP2 MSTORE PUSH1 0x20 ADD PUSH1 0x5 DUP3 ADD PUSH1 0x0 SWAP1 SLOAD SWAP1 PUSH2 0x100 EXP SWAP1 DIV PUSH20 0xFFFFFFFFFFFFFFFFFFFFFFFFFFFFFFFFFFFFFFFF AND PUSH20 0xFFFFFFFFFFFFFFFFFFFFFFFFFFFFFFFFFFFFFFFF AND PUSH20 0xFFFFFFFFFFFFFFFFFFFFFFFFFFFFFFFFFFFFFFFF AND DUP2 MSTORE PUSH1 0x20 ADD PUSH1 0x6 DUP3 ADD SLOAD DUP2 MSTORE PUSH1 0x20 ADD PUSH1 0x7 DUP3 ADD PUSH1 0x0 SWAP1 SLOAD SWAP1 PUSH2 0x100 EXP SWAP1 DIV PUSH1 0xFF AND PUSH1 0x2 DUP2 GT ISZERO PUSH2 0x9A0 JUMPI PUSH2 0x99F PUSH2 0x1682 JUMP JUMPDEST JUMPDEST PUSH1 0x2 DUP2 GT ISZERO PUSH2 0x9B2 JUMPI PUSH2 0x9B1 PUSH2 0x1682 JUMP JUMPDEST JUMPDEST DUP2 MSTORE POP POP DUP3 DUP3 DUP2 MLOAD DUP2 LT PUSH2 0x9C9 JUMPI PUSH2 0x9C8 PUSH2 0x1BC6 JUMP JUMPDEST JUMPDEST PUSH1 0x20 MUL PUSH1 0x20 ADD ADD DUP2 SWAP1 MSTORE POP DUP1 DUP1 PUSH1 0x1 ADD SWAP2 POP POP PUSH2 0x848 JUMP JUMPDEST POP DUP1 SWAP3 POP POP POP SWAP2 SWAP1 POP JUMP JUMPDEST PUSH1 0x1 PUSH1 0x20 MSTORE DUP1 PUSH1 0x0 MSTORE PUSH1 0x40 PUSH1 0x0 KECCAK256 PUSH1 0x0 SWAP2 POP SWAP1 POP DUP1 PUSH1 0x0 ADD SLOAD SWAP1 DUP1 PUSH1 0x1 ADD PUSH1 0x40 MLOAD DUP1 PUSH1 0x80 ADD PUSH1 0x40 MSTORE SWAP1 DUP2 PUSH1 0x0 DUP3 ADD SLOAD DUP2 MSTORE PUSH1 0x20 ADD PUSH1 0x1 DUP3 ADD SLOAD DUP2 MSTORE PUSH1 0x20 ADD PUSH1 0x2 DUP3 ADD SLOAD DUP2 MSTORE PUSH1 0x20 ADD PUSH1 0x3 DUP3 ADD PUSH1 0x0 SWAP1 SLOAD SWAP1 PUSH2 0x100 EXP SWAP1 DIV PUSH20 0xFFFFFFFFFFFFFFFFFFFFFFFFFFFFFFFFFFFFFFFF AND PUSH20 0xFFFFFFFFFFFFFFFFFFFFFFFFFFFFFFFFFFFFFFFF AND PUSH20 0xFFFFFFFFFFFFFFFFFFFFFFFFFFFFFFFFFFFFFFFF AND DUP2 MSTORE POP POP SWAP1 DUP1 PUSH1 0x5 ADD PUSH1 0x0 SWAP1 SLOAD SWAP1 PUSH2 0x100 EXP SWAP1 DIV PUSH20 0xFFFFFFFFFFFFFFFFFFFFFFFFFFFFFFFFFFFFFFFF AND SWAP1 DUP1 PUSH1 0x6 ADD SLOAD SWAP1 DUP1 PUSH1 0x7 ADD PUSH1 0x0 SWAP1 SLOAD SWAP1 PUSH2 0x100 EXP SWAP1 DIV PUSH1 0xFF AND SWAP1 POP DUP6 JUMP JUMPDEST PUSH1 0x0 PUSH1 0x1 PUSH1 0x0 DUP4 DUP2 MSTORE PUSH1 0x20 ADD SWAP1 DUP2 MSTORE PUSH1 0x20 ADD PUSH1 0x0 KECCAK256 SWAP1 POP CALLER PUSH20 0xFFFFFFFFFFFFFFFFFFFFFFFFFFFFFFFFFFFFFFFF AND DUP2 PUSH1 0x5 ADD PUSH1 0x0 SWAP1 SLOAD SWAP1 PUSH2 0x100 EXP SWAP1 DIV PUSH20 0xFFFFFFFFFFFFFFFFFFFFFFFFFFFFFFFFFFFFFFFF AND PUSH20 0xFFFFFFFFFFFFFFFFFFFFFFFFFFFFFFFFFFFFFFFF AND EQ PUSH2 0xB76 JUMPI PUSH1 0x40 MLOAD PUSH32 0x8C379A000000000000000000000000000000000000000000000000000000000 DUP2 MSTORE PUSH1 0x4 ADD PUSH2 0xB6D SWAP1 PUSH2 0x1A7F JUMP JUMPDEST PUSH1 0x40 MLOAD DUP1 SWAP2 SUB SWAP1 REVERT JUMPDEST PUSH1 0x0 PUSH1 0x2 DUP2 GT ISZERO PUSH2 0xB8A JUMPI PUSH2 0xB89 PUSH2 0x1682 JUMP JUMPDEST JUMPDEST DUP2 PUSH1 0x7 ADD PUSH1 0x0 SWAP1 SLOAD SWAP1 PUSH2 0x100 EXP SWAP1 DIV PUSH1 0xFF AND PUSH1 0x2 DUP2 GT ISZERO PUSH2 0xBAE JUMPI PUSH2 0xBAD PUSH2 0x1682 JUMP JUMPDEST JUMPDEST EQ PUSH2 0xBEE JUMPI PUSH1 0x40 MLOAD PUSH32 0x8C379A000000000000000000000000000000000000000000000000000000000 DUP2 MSTORE PUSH1 0x4 ADD PUSH2 0xBE5 SWAP1 PUSH2 0x1C89 JUMP JUMPDEST PUSH1 0x40 MLOAD DUP1 SWAP2 SUB SWAP1 REVERT JUMPDEST PUSH1 0x1 DUP2 PUSH1 0x7 ADD PUSH1 0x0 PUSH2 0x100 EXP DUP2 SLOAD DUP2 PUSH1 0xFF MUL NOT AND SWAP1 DUP4 PUSH1 0x2 DUP2 GT ISZERO PUSH2 0xC16 JUMPI PUSH2 0xC15 PUSH2 0x1682 JUMP JUMPDEST JUMPDEST MUL OR SWAP1 SSTORE POP PUSH32 0x19800BCB0AC4476F8C5DC58E76AA820026D28A52F87DA5213E57D16B75AE0DE9 DUP3 DUP3 PUSH1 0x5 ADD PUSH1 0x0 SWAP1 SLOAD SWAP1 PUSH2 0x100 EXP SWAP1 DIV PUSH20 0xFFFFFFFFFFFFFFFFFFFFFFFFFFFFFFFFFFFFFFFF AND PUSH1 0x40 MLOAD PUSH2 0xC70 SWAP3 SWAP2 SWAP1 PUSH2 0x1B0B JUMP JUMPDEST PUSH1 0x40 MLOAD DUP1 SWAP2 SUB SWAP1 LOG1 POP POP JUMP JUMPDEST PUSH1 0x0 DUP4 DUP4 PUSH2 0xC8A SWAP2 SWAP1 PUSH2 0x1CA9 JUMP JUMPDEST SWAP1 POP DUP1 CALLVALUE EQ PUSH2 0xCCE JUMPI PUSH1 0x40 MLOAD PUSH32 0x8C379A000000000000000000000000000000000000000000000000000000000 DUP2 MSTORE PUSH1 0x4 ADD PUSH2 0xCC5 SWAP1 PUSH2 0x1D37 JUMP JUMPDEST PUSH1 0x40 MLOAD DUP1 SWAP2 SUB SWAP1 REVERT JUMPDEST PUSH1 0x0 DUP1 DUP2 SLOAD DUP1 SWAP3 SWAP2 SWAP1 PUSH2 0xCE0 SWAP1 PUSH2 0x1BF5 JUMP JUMPDEST SWAP2 SWAP1 POP SSTORE POP PUSH1 0x0 PUSH1 0x1 PUSH1 0x0 DUP1 SLOAD DUP2 MSTORE PUSH1 0x20 ADD SWAP1 DUP2 MSTORE PUSH1 0x20 ADD PUSH1 0x0 KECCAK256 SWAP1 POP PUSH1 0x0 SLOAD DUP2 PUSH1 0x0 ADD DUP2 SWAP1 SSTORE POP DUP7 DUP2 PUSH1 0x5 ADD PUSH1 0x0 PUSH2 0x100 EXP DUP2 SLOAD DUP2 PUSH20 0xFFFFFFFFFFFFFFFFFFFFFFFFFFFFFFFFFFFFFFFF MUL NOT AND SWAP1 DUP4 PUSH20 0xFFFFFFFFFFFFFFFFFFFFFFFFFFFFFFFFFFFFFFFF AND MUL OR SWAP1 SSTORE POP DUP2 DUP2 PUSH1 0x6 ADD DUP2 SWAP1 SSTORE POP PUSH1 0x0 DUP2 PUSH1 0x7 ADD PUSH1 0x0 PUSH2 0x100 EXP DUP2 SLOAD DUP2 PUSH1 0xFF MUL NOT AND SWAP1 DUP4 PUSH1 0x2 DUP2 GT ISZERO PUSH2 0xD7C JUMPI PUSH2 0xD7B PUSH2 0x1682 JUMP JUMPDEST JUMPDEST MUL OR SWAP1 SSTORE POP PUSH1 0x0 PUSH1 0x40 MLOAD DUP1 PUSH1 0x80 ADD PUSH1 0x40 MSTORE DUP1 DUP9 DUP2 MSTORE PUSH1 0x20 ADD DUP8 DUP2 MSTORE PUSH1 0x20 ADD DUP7 DUP2 MSTORE PUSH1 0x20 ADD DUP6 PUSH20 0xFFFFFFFFFFFFFFFFFFFFFFFFFFFFFFFFFFFFFFFF AND DUP2 MSTORE POP SWAP1 POP DUP1 DUP3 PUSH1 0x1 ADD PUSH1 0x0 DUP3 ADD MLOAD DUP2 PUSH1 0x0 ADD SSTORE PUSH1 0x20 DUP3 ADD MLOAD DUP2 PUSH1 0x1 ADD SSTORE PUSH1 0x40 DUP3 ADD MLOAD DUP2 PUSH1 0x2 ADD SSTORE PUSH1 0x60 DUP3 ADD MLOAD DUP2 PUSH1 0x3 ADD PUSH1 0x0 PUSH2 0x100 EXP DUP2 SLOAD DUP2 PUSH20 0xFFFFFFFFFFFFFFFFFFFFFFFFFFFFFFFFFFFFFFFF MUL NOT AND SWAP1 DUP4 PUSH20 0xFFFFFFFFFFFFFFFFFFFFFFFFFFFFFFFFFFFFFFFF AND MUL OR SWAP1 SSTORE POP SWAP1 POP POP PUSH1 0x0 DUP5 PUSH20 0xFFFFFFFFFFFFFFFFFFFFFFFFFFFFFFFFFFFFFFFF AND DUP5 PUSH1 0x40 MLOAD PUSH2 0xE4F SWAP1 PUSH2 0x1D88 JUMP JUMPDEST PUSH1 0x0 PUSH1 0x40 MLOAD DUP1 DUP4 SUB DUP2 DUP6 DUP8 GAS CALL SWAP3 POP POP POP RETURNDATASIZE DUP1 PUSH1 0x0 DUP2 EQ PUSH2 0xE8C JUMPI PUSH1 0x40 MLOAD SWAP2 POP PUSH1 0x1F NOT PUSH1 0x3F RETURNDATASIZE ADD AND DUP3 ADD PUSH1 0x40 MSTORE RETURNDATASIZE DUP3 MSTORE RETURNDATASIZE PUSH1 0x0 PUSH1 0x20 DUP5 ADD RETURNDATACOPY PUSH2 0xE91 JUMP JUMPDEST PUSH1 0x60 SWAP2 POP JUMPDEST POP POP SWAP1 POP DUP1 PUSH2 0xED5 JUMPI PUSH1 0x40 MLOAD PUSH32 0x8C379A000000000000000000000000000000000000000000000000000000000 DUP2 MSTORE PUSH1 0x4 ADD PUSH2 0xECC SWAP1 PUSH2 0x1DE9 JUMP JUMPDEST PUSH1 0x40 MLOAD DUP1 SWAP2 SUB SWAP1 REVERT JUMPDEST PUSH32 0x64768E2AC08926AED9A23761EF7CF9BB1C7D9971CFAB10846BB88CEB9353C593 PUSH1 0x0 SLOAD DUP7 DUP7 PUSH1 0x40 MLOAD PUSH2 0xF0A SWAP4 SWAP3 SWAP2 SWAP1 PUSH2 0x1E09 JUMP JUMPDEST PUSH1 0x40 MLOAD DUP1 SWAP2 SUB SWAP1 LOG1 PUSH1 0x2 PUSH1 0x0 DUP11 PUSH20 0xFFFFFFFFFFFFFFFFFFFFFFFFFFFFFFFFFFFFFFFF AND PUSH20 0xFFFFFFFFFFFFFFFFFFFFFFFFFFFFFFFFFFFFFFFF AND DUP2 MSTORE PUSH1 0x20 ADD SWAP1 DUP2 MSTORE PUSH1 0x20 ADD PUSH1 0x0 KECCAK256 PUSH1 0x0 SLOAD SWAP1 DUP1 PUSH1 0x1 DUP2 SLOAD ADD DUP1 DUP3 SSTORE DUP1 SWAP2 POP POP PUSH1 0x1 SWAP1 SUB SWAP1 PUSH1 0x0 MSTORE PUSH1 0x20 PUSH1 0x0 KECCAK256 ADD PUSH1 0x0 SWAP1 SWAP2 SWAP1 SWAP2 SWAP1 SWAP2 POP SSTORE PUSH1 0x3 PUSH1 0x0 DUP7 PUSH20 0xFFFFFFFFFFFFFFFFFFFFFFFFFFFFFFFFFFFFFFFF AND PUSH20 0xFFFFFFFFFFFFFFFFFFFFFFFFFFFFFFFFFFFFFFFF AND DUP2 MSTORE PUSH1 0x20 ADD SWAP1 DUP2 MSTORE PUSH1 0x20 ADD PUSH1 0x0 KECCAK256 PUSH1 0x0 SLOAD SWAP1 DUP1 PUSH1 0x1 DUP2 SLOAD ADD DUP1 DUP3 SSTORE DUP1 SWAP2 POP POP PUSH1 0x1 SWAP1 SUB SWAP1 PUSH1 0x0 MSTORE PUSH1 0x20 PUSH1 0x0 KECCAK256 ADD PUSH1 0x0 SWAP1 SWAP2 SWAP1 SWAP2 SWAP1 SWAP2 POP SSTORE PUSH32 0x28EB86FD03C9BD96A8A83E4A46AB2AD257B70CEA893D98AD6D482E96AA25FAD0 PUSH1 0x0 SLOAD DUP11 DUP7 PUSH1 0x40 MLOAD PUSH2 0x1017 SWAP4 SWAP3 SWAP2 SWAP1 PUSH2 0x1E09 JUMP JUMPDEST PUSH1 0x40 MLOAD DUP1 SWAP2 SUB SWAP1 LOG1 POP POP POP POP POP POP POP POP POP JUMP JUMPDEST PUSH1 0x60 PUSH1 0x0 PUSH1 0x3 PUSH1 0x0 DUP5 PUSH20 0xFFFFFFFFFFFFFFFFFFFFFFFFFFFFFFFFFFFFFFFF AND PUSH20 0xFFFFFFFFFFFFFFFFFFFFFFFFFFFFFFFFFFFFFFFF AND DUP2 MSTORE PUSH1 0x20 ADD SWAP1 DUP2 MSTORE PUSH1 0x20 ADD PUSH1 0x0 KECCAK256 DUP1 SLOAD DUP1 PUSH1 0x20 MUL PUSH1 0x20 ADD PUSH1 0x40 MLOAD SWAP1 DUP2 ADD PUSH1 0x40 MSTORE DUP1 SWAP3 SWAP2 SWAP1 DUP2 DUP2 MSTORE PUSH1 0x20 ADD DUP3 DUP1 SLOAD DUP1 ISZERO PUSH2 0x10B7 JUMPI PUSH1 0x20 MUL DUP3 ADD SWAP2 SWAP1 PUSH1 0x0 MSTORE PUSH1 0x20 PUSH1 0x0 KECCAK256 SWAP1 JUMPDEST DUP2 SLOAD DUP2 MSTORE PUSH1 0x20 ADD SWAP1 PUSH1 0x1 ADD SWAP1 DUP1 DUP4 GT PUSH2 0x10A3 JUMPI JUMPDEST POP POP POP POP POP SWAP1 POP PUSH1 0x0 DUP2 MLOAD PUSH8 0xFFFFFFFFFFFFFFFF DUP2 GT ISZERO PUSH2 0x10DB JUMPI PUSH2 0x10DA PUSH2 0x1B34 JUMP JUMPDEST JUMPDEST PUSH1 0x40 MLOAD SWAP1 DUP1 DUP3 MSTORE DUP1 PUSH1 0x20 MUL PUSH1 0x20 ADD DUP3 ADD PUSH1 0x40 MSTORE DUP1 ISZERO PUSH2 0x1114 JUMPI DUP2 PUSH1 0x20 ADD JUMPDEST PUSH2 0x1101 PUSH2 0x1418 JUMP JUMPDEST DUP2 MSTORE PUSH1 0x20 ADD SWAP1 PUSH1 0x1 SWAP1 SUB SWAP1 DUP2 PUSH2 0x10F9 JUMPI SWAP1 POP JUMPDEST POP SWAP1 POP PUSH1 0x0 JUMPDEST DUP3 MLOAD DUP2 LT ISZERO PUSH2 0x12B3 JUMPI PUSH1 0x1 PUSH1 0x0 DUP5 DUP4 DUP2 MLOAD DUP2 LT PUSH2 0x113A JUMPI PUSH2 0x1139 PUSH2 0x1BC6 JUMP JUMPDEST JUMPDEST PUSH1 0x20 MUL PUSH1 0x20 ADD ADD MLOAD DUP2 MSTORE PUSH1 0x20 ADD SWAP1 DUP2 MSTORE PUSH1 0x20 ADD PUSH1 0x0 KECCAK256 PUSH1 0x40 MLOAD DUP1 PUSH1 0xA0 ADD PUSH1 0x40 MSTORE SWAP1 DUP2 PUSH1 0x0 DUP3 ADD SLOAD DUP2 MSTORE PUSH1 0x20 ADD PUSH1 0x1 DUP3 ADD PUSH1 0x40 MLOAD DUP1 PUSH1 0x80 ADD PUSH1 0x40 MSTORE SWAP1 DUP2 PUSH1 0x0 DUP3 ADD SLOAD DUP2 MSTORE PUSH1 0x20 ADD PUSH1 0x1 DUP3 ADD SLOAD DUP2 MSTORE PUSH1 0x20 ADD PUSH1 0x2 DUP3 ADD SLOAD DUP2 MSTORE PUSH1 0x20 ADD PUSH1 0x3 DUP3 ADD PUSH1 0x0 SWAP1 SLOAD SWAP1 PUSH2 0x100 EXP SWAP1 DIV PUSH20 0xFFFFFFFFFFFFFFFFFFFFFFFFFFFFFFFFFFFFFFFF AND PUSH20 0xFFFFFFFFFFFFFFFFFFFFFFFFFFFFFFFFFFFFFFFF AND PUSH20 0xFFFFFFFFFFFFFFFFFFFFFFFFFFFFFFFFFFFFFFFF AND DUP2 MSTORE POP POP DUP2 MSTORE PUSH1 0x20 ADD PUSH1 0x5 DUP3 ADD PUSH1 0x0 SWAP1 SLOAD SWAP1 PUSH2 0x100 EXP SWAP1 DIV PUSH20 0xFFFFFFFFFFFFFFFFFFFFFFFFFFFFFFFFFFFFFFFF AND PUSH20 0xFFFFFFFFFFFFFFFFFFFFFFFFFFFFFFFFFFFFFFFF AND PUSH20 0xFFFFFFFFFFFFFFFFFFFFFFFFFFFFFFFFFFFFFFFF AND DUP2 MSTORE PUSH1 0x20 ADD PUSH1 0x6 DUP3 ADD SLOAD DUP2 MSTORE PUSH1 0x20 ADD PUSH1 0x7 DUP3 ADD PUSH1 0x0 SWAP1 SLOAD SWAP1 PUSH2 0x100 EXP SWAP1 DIV PUSH1 0xFF AND PUSH1 0x2 DUP2 GT ISZERO PUSH2 0x1272 JUMPI PUSH2 0x1271 PUSH2 0x1682 JUMP JUMPDEST JUMPDEST PUSH1 0x2 DUP2 GT ISZERO PUSH2 0x1284 JUMPI PUSH2 0x1283 PUSH2 0x1682 JUMP JUMPDEST JUMPDEST DUP2 MSTORE POP POP DUP3 DUP3 DUP2 MLOAD DUP2 LT PUSH2 0x129B JUMPI PUSH2 0x129A PUSH2 0x1BC6 JUMP JUMPDEST JUMPDEST PUSH1 0x20 MUL PUSH1 0x20 ADD ADD DUP2 SWAP1 MSTORE POP DUP1 DUP1 PUSH1 0x1 ADD SWAP2 POP POP PUSH2 0x111A JUMP JUMPDEST POP DUP1 SWAP3 POP POP POP SWAP2 SWAP1 POP JUMP JUMPDEST PUSH2 0x12C6 PUSH2 0x1418 JUMP JUMPDEST PUSH1 0x1 PUSH1 0x0 DUP4 DUP2 MSTORE PUSH1 0x20 ADD SWAP1 DUP2 MSTORE PUSH1 0x20 ADD PUSH1 0x0 KECCAK256 PUSH1 0x40 MLOAD DUP1 PUSH1 0xA0 ADD PUSH1 0x40 MSTORE SWAP1 DUP2 PUSH1 0x0 DUP3 ADD SLOAD DUP2 MSTORE PUSH1 0x20 ADD PUSH1 0x1 DUP3 ADD PUSH1 0x40 MLOAD DUP1 PUSH1 0x80 ADD PUSH1 0x40 MSTORE SWAP1 DUP2 PUSH1 0x0 DUP3 ADD SLOAD DUP2 MSTORE PUSH1 0x20 ADD PUSH1 0x1 DUP3 ADD SLOAD DUP2 MSTORE PUSH1 0x20 ADD PUSH1 0x2 DUP3 ADD SLOAD DUP2 MSTORE PUSH1 0x20 ADD PUSH1 0x3 DUP3 ADD PUSH1 0x0 SWAP1 SLOAD SWAP1 PUSH2 0x100 EXP SWAP1 DIV PUSH20 0xFFFFFFFFFFFFFFFFFFFFFFFFFFFFFFFFFFFFFFFF AND PUSH20 0xFFFFFFFFFFFFFFFFFFFFFFFFFFFFFFFFFFFFFFFF AND PUSH20 0xFFFFFFFFFFFFFFFFFFFFFFFFFFFFFFFFFFFFFFFF AND DUP2 MSTORE POP POP DUP2 MSTORE PUSH1 0x20 ADD PUSH1 0x5 DUP3 ADD PUSH1 0x0 SWAP1 SLOAD SWAP1 PUSH2 0x100 EXP SWAP1 DIV PUSH20 0xFFFFFFFFFFFFFFFFFFFFFFFFFFFFFFFFFFFFFFFF AND PUSH20 0xFFFFFFFFFFFFFFFFFFFFFFFFFFFFFFFFFFFFFFFF AND PUSH20 0xFFFFFFFFFFFFFFFFFFFFFFFFFFFFFFFFFFFFFFFF AND DUP2 MSTORE PUSH1 0x20 ADD PUSH1 0x6 DUP3 ADD SLOAD DUP2 MSTORE PUSH1 0x20 ADD PUSH1 0x7 DUP3 ADD PUSH1 0x0 SWAP1 SLOAD SWAP1 PUSH2 0x100 EXP SWAP1 DIV PUSH1 0xFF AND PUSH1 0x2 DUP2 GT ISZERO PUSH2 0x13FB JUMPI PUSH2 0x13FA PUSH2 0x1682 JUMP JUMPDEST JUMPDEST PUSH1 0x2 DUP2 GT ISZERO PUSH2 0x140D JUMPI PUSH2 0x140C PUSH2 0x1682 JUMP JUMPDEST JUMPDEST DUP2 MSTORE POP POP SWAP1 POP SWAP2 SWAP1 POP JUMP JUMPDEST PUSH1 0x40 MLOAD DUP1 PUSH1 0xA0 ADD PUSH1 0x40 MSTORE DUP1 PUSH1 0x0 DUP2 MSTORE PUSH1 0x20 ADD PUSH2 0x1432 PUSH2 0x1475 JUMP JUMPDEST DUP2 MSTORE PUSH1 0x20 ADD PUSH1 0x0 PUSH20 0xFFFFFFFFFFFFFFFFFFFFFFFFFFFFFFFFFFFFFFFF AND DUP2 MSTORE PUSH1 0x20 ADD PUSH1 0x0 DUP2 MSTORE PUSH1 0x20 ADD PUSH1 0x0 PUSH1 0x2 DUP2 GT ISZERO PUSH2 0x146F JUMPI PUSH2 0x146E PUSH2 0x1682 JUMP JUMPDEST JUMPDEST DUP2 MSTORE POP SWAP1 JUMP JUMPDEST PUSH1 0x40 MLOAD DUP1 PUSH1 0x80 ADD PUSH1 0x40 MSTORE DUP1 PUSH1 0x0 DUP2 MSTORE PUSH1 0x20 ADD PUSH1 0x0 DUP2 MSTORE PUSH1 0x20 ADD PUSH1 0x0 DUP2 MSTORE PUSH1 0x20 ADD PUSH1 0x0 PUSH20 0xFFFFFFFFFFFFFFFFFFFFFFFFFFFFFFFFFFFFFFFF AND DUP2 MSTORE POP SWAP1 JUMP JUMPDEST PUSH1 0x0 DUP2 SWAP1 POP SWAP2 SWAP1 POP JUMP JUMPDEST PUSH2 0x14C6 DUP2 PUSH2 0x14B3 JUMP JUMPDEST DUP3 MSTORE POP POP JUMP JUMPDEST PUSH1 0x0 PUSH1 0x20 DUP3 ADD SWAP1 POP PUSH2 0x14E1 PUSH1 0x0 DUP4 ADD DUP5 PUSH2 0x14BD JUMP JUMPDEST SWAP3 SWAP2 POP POP JUMP JUMPDEST PUSH1 0x0 DUP1 REVERT JUMPDEST PUSH1 0x0 PUSH20 0xFFFFFFFFFFFFFFFFFFFFFFFFFFFFFFFFFFFFFFFF DUP3 AND SWAP1 POP SWAP2 SWAP1 POP JUMP JUMPDEST PUSH1 0x0 PUSH2 0x1517 DUP3 PUSH2 0x14EC JUMP JUMPDEST SWAP1 POP SWAP2 SWAP1 POP JUMP JUMPDEST PUSH2 0x1527 DUP2 PUSH2 0x150C JUMP JUMPDEST DUP2 EQ PUSH2 0x1532 JUMPI PUSH1 0x0 DUP1 REVERT JUMPDEST POP JUMP JUMPDEST PUSH1 0x0 DUP2 CALLDATALOAD SWAP1 POP PUSH2 0x1544 DUP2 PUSH2 0x151E JUMP JUMPDEST SWAP3 SWAP2 POP POP JUMP JUMPDEST PUSH2 0x1553 DUP2 PUSH2 0x14B3 JUMP JUMPDEST DUP2 EQ PUSH2 0x155E JUMPI PUSH1 0x0 DUP1 REVERT JUMPDEST POP JUMP JUMPDEST PUSH1 0x0 DUP2 CALLDATALOAD SWAP1 POP PUSH2 0x1570 DUP2 PUSH2 0x154A JUMP JUMPDEST SWAP3 SWAP2 POP POP JUMP JUMPDEST PUSH1 0x0 DUP1 PUSH1 0x40 DUP4 DUP6 SUB SLT ISZERO PUSH2 0x158D JUMPI PUSH2 0x158C PUSH2 0x14E7 JUMP JUMPDEST JUMPDEST PUSH1 0x0 PUSH2 0x159B DUP6 DUP3 DUP7 ADD PUSH2 0x1535 JUMP JUMPDEST SWAP3 POP POP PUSH1 0x20 PUSH2 0x15AC DUP6 DUP3 DUP7 ADD PUSH2 0x1561 JUMP JUMPDEST SWAP2 POP POP SWAP3 POP SWAP3 SWAP1 POP JUMP JUMPDEST PUSH1 0x0 PUSH1 0x20 DUP3 DUP5 SUB SLT ISZERO PUSH2 0x15CC JUMPI PUSH2 0x15CB PUSH2 0x14E7 JUMP JUMPDEST JUMPDEST PUSH1 0x0 PUSH2 0x15DA DUP5 DUP3 DUP6 ADD PUSH2 0x1561 JUMP JUMPDEST SWAP2 POP POP SWAP3 SWAP2 POP POP JUMP JUMPDEST PUSH1 0x0 DUP2 MLOAD SWAP1 POP SWAP2 SWAP1 POP JUMP JUMPDEST PUSH1 0x0 DUP3 DUP3 MSTORE PUSH1 0x20 DUP3 ADD SWAP1 POP SWAP3 SWAP2 POP POP JUMP JUMPDEST PUSH1 0x0 DUP2 SWAP1 POP PUSH1 0x20 DUP3 ADD SWAP1 POP SWAP2 SWAP1 POP JUMP JUMPDEST PUSH2 0x1618 DUP2 PUSH2 0x14B3 JUMP JUMPDEST DUP3 MSTORE POP POP JUMP JUMPDEST PUSH2 0x1627 DUP2 PUSH2 0x150C JUMP JUMPDEST DUP3 MSTORE POP POP JUMP JUMPDEST PUSH1 0x80 DUP3 ADD PUSH1 0x0 DUP3 ADD MLOAD PUSH2 0x1643 PUSH1 0x0 DUP6 ADD DUP3 PUSH2 0x160F JUMP JUMPDEST POP PUSH1 0x20 DUP3 ADD MLOAD PUSH2 0x1656 PUSH1 0x20 DUP6 ADD DUP3 PUSH2 0x160F JUMP JUMPDEST POP PUSH1 0x40 DUP3 ADD MLOAD PUSH2 0x1669 PUSH1 0x40 DUP6 ADD DUP3 PUSH2 0x160F JUMP JUMPDEST POP PUSH1 0x60 DUP3 ADD MLOAD PUSH2 0x167C PUSH1 0x60 DUP6 ADD DUP3 PUSH2 0x161E JUMP JUMPDEST POP POP POP POP JUMP JUMPDEST PUSH32 0x4E487B7100000000000000000000000000000000000000000000000000000000 PUSH1 0x0 MSTORE PUSH1 0x21 PUSH1 0x4 MSTORE PUSH1 0x24 PUSH1 0x0 REVERT JUMPDEST PUSH1 0x3 DUP2 LT PUSH2 0x16C2 JUMPI PUSH2 0x16C1 PUSH2 0x1682 JUMP JUMPDEST JUMPDEST POP JUMP JUMPDEST PUSH1 0x0 DUP2 SWAP1 POP PUSH2 0x16D3 DUP3 PUSH2 0x16B1 JUMP JUMPDEST SWAP2 SWAP1 POP JUMP JUMPDEST PUSH1 0x0 PUSH2 0x16E3 DUP3 PUSH2 0x16C5 JUMP JUMPDEST SWAP1 POP SWAP2 SWAP1 POP JUMP JUMPDEST PUSH2 0x16F3 DUP2 PUSH2 0x16D8 JUMP JUMPDEST DUP3 MSTORE POP POP JUMP JUMPDEST PUSH2 0x100 DUP3 ADD PUSH1 0x0 DUP3 ADD MLOAD PUSH2 0x1710 PUSH1 0x0 DUP6 ADD DUP3 PUSH2 0x160F JUMP JUMPDEST POP PUSH1 0x20 DUP3 ADD MLOAD PUSH2 0x1723 PUSH1 0x20 DUP6 ADD DUP3 PUSH2 0x162D JUMP JUMPDEST POP PUSH1 0x40 DUP3 ADD MLOAD PUSH2 0x1736 PUSH1 0xA0 DUP6 ADD DUP3 PUSH2 0x161E JUMP JUMPDEST POP PUSH1 0x60 DUP3 ADD MLOAD PUSH2 0x1749 PUSH1 0xC0 DUP6 ADD DUP3 PUSH2 0x160F JUMP JUMPDEST POP PUSH1 0x80 DUP3 ADD MLOAD PUSH2 0x175C PUSH1 0xE0 DUP6 ADD DUP3 PUSH2 0x16EA JUMP JUMPDEST POP POP POP POP JUMP JUMPDEST PUSH1 0x0 PUSH2 0x176E DUP4 DUP4 PUSH2 0x16F9 JUMP JUMPDEST PUSH2 0x100 DUP4 ADD SWAP1 POP SWAP3 SWAP2 POP POP JUMP JUMPDEST PUSH1 0x0 PUSH1 0x20 DUP3 ADD SWAP1 POP SWAP2 SWAP1 POP JUMP JUMPDEST PUSH1 0x0 PUSH2 0x1793 DUP3 PUSH2 0x15E3 JUMP JUMPDEST PUSH2 0x179D DUP2 DUP6 PUSH2 0x15EE JUMP JUMPDEST SWAP4 POP PUSH2 0x17A8 DUP4 PUSH2 0x15FF JUMP JUMPDEST DUP1 PUSH1 0x0 JUMPDEST DUP4 DUP2 LT ISZERO PUSH2 0x17D9 JUMPI DUP2 MLOAD PUSH2 0x17C0 DUP9 DUP3 PUSH2 0x1762 JUMP JUMPDEST SWAP8 POP PUSH2 0x17CB DUP4 PUSH2 0x177B JUMP JUMPDEST SWAP3 POP POP PUSH1 0x1 DUP2 ADD SWAP1 POP PUSH2 0x17AC JUMP JUMPDEST POP DUP6 SWAP4 POP POP POP POP SWAP3 SWAP2 POP POP JUMP JUMPDEST PUSH1 0x0 PUSH1 0x20 DUP3 ADD SWAP1 POP DUP2 DUP2 SUB PUSH1 0x0 DUP4 ADD MSTORE PUSH2 0x1800 DUP2 DUP5 PUSH2 0x1788 JUMP JUMPDEST SWAP1 POP SWAP3 SWAP2 POP POP JUMP JUMPDEST PUSH1 0x0 PUSH1 0x20 DUP3 DUP5 SUB SLT ISZERO PUSH2 0x181E JUMPI PUSH2 0x181D PUSH2 0x14E7 JUMP JUMPDEST JUMPDEST PUSH1 0x0 PUSH2 0x182C DUP5 DUP3 DUP6 ADD PUSH2 0x1535 JUMP JUMPDEST SWAP2 POP POP SWAP3 SWAP2 POP POP JUMP JUMPDEST PUSH1 0x80 DUP3 ADD PUSH1 0x0 DUP3 ADD MLOAD PUSH2 0x184B PUSH1 0x0 DUP6 ADD DUP3 PUSH2 0x160F JUMP JUMPDEST POP PUSH1 0x20 DUP3 ADD MLOAD PUSH2 0x185E PUSH1 0x20 DUP6 ADD DUP3 PUSH2 0x160F JUMP JUMPDEST POP PUSH1 0x40 DUP3 ADD MLOAD PUSH2 0x1871 PUSH1 0x40 DUP6 ADD DUP3 PUSH2 0x160F JUMP JUMPDEST POP PUSH1 0x60 DUP3 ADD MLOAD PUSH2 0x1884 PUSH1 0x60 DUP6 ADD DUP3 PUSH2 0x161E JUMP JUMPDEST POP POP POP POP JUMP JUMPDEST PUSH2 0x1893 DUP2 PUSH2 0x150C JUMP JUMPDEST DUP3 MSTORE POP POP JUMP JUMPDEST PUSH2 0x18A2 DUP2 PUSH2 0x16D8 JUMP JUMPDEST DUP3 MSTORE POP POP JUMP JUMPDEST PUSH1 0x0 PUSH2 0x100 DUP3 ADD SWAP1 POP PUSH2 0x18BE PUSH1 0x0 DUP4 ADD DUP9 PUSH2 0x14BD JUMP JUMPDEST PUSH2 0x18CB PUSH1 0x20 DUP4 ADD DUP8 PUSH2 0x1835 JUMP JUMPDEST PUSH2 0x18D8 PUSH1 0xA0 DUP4 ADD DUP7 PUSH2 0x188A JUMP JUMPDEST PUSH2 0x18E5 PUSH1 0xC0 DUP4 ADD DUP6 PUSH2 0x14BD JUMP JUMPDEST PUSH2 0x18F2 PUSH1 0xE0 DUP4 ADD DUP5 PUSH2 0x1899 JUMP JUMPDEST SWAP7 SWAP6 POP POP POP POP POP POP JUMP JUMPDEST PUSH1 0x0 DUP1 PUSH1 0x0 DUP1 PUSH1 0x0 PUSH1 0xA0 DUP7 DUP9 SUB SLT ISZERO PUSH2 0x1918 JUMPI PUSH2 0x1917 PUSH2 0x14E7 JUMP JUMPDEST JUMPDEST PUSH1 0x0 PUSH2 0x1926 DUP9 DUP3 DUP10 ADD PUSH2 0x1535 JUMP JUMPDEST SWAP6 POP POP PUSH1 0x20 PUSH2 0x1937 DUP9 DUP3 DUP10 ADD PUSH2 0x1561 JUMP JUMPDEST SWAP5 POP POP PUSH1 0x40 PUSH2 0x1948 DUP9 DUP3 DUP10 ADD PUSH2 0x1561 JUMP JUMPDEST SWAP4 POP POP PUSH1 0x60 PUSH2 0x1959 DUP9 DUP3 DUP10 ADD PUSH2 0x1561 JUMP JUMPDEST SWAP3 POP POP PUSH1 0x80 PUSH2 0x196A DUP9 DUP3 DUP10 ADD PUSH2 0x1535 JUMP JUMPDEST SWAP2 POP POP SWAP3 SWAP6 POP SWAP3 SWAP6 SWAP1 SWAP4 POP JUMP JUMPDEST PUSH2 0x100 DUP3 ADD PUSH1 0x0 DUP3 ADD MLOAD PUSH2 0x198E PUSH1 0x0 DUP6 ADD DUP3 PUSH2 0x160F JUMP JUMPDEST POP PUSH1 0x20 DUP3 ADD MLOAD PUSH2 0x19A1 PUSH1 0x20 DUP6 ADD DUP3 PUSH2 0x162D JUMP JUMPDEST POP PUSH1 0x40 DUP3 ADD MLOAD PUSH2 0x19B4 PUSH1 0xA0 DUP6 ADD DUP3 PUSH2 0x161E JUMP JUMPDEST POP PUSH1 0x60 DUP3 ADD MLOAD PUSH2 0x19C7 PUSH1 0xC0 DUP6 ADD DUP3 PUSH2 0x160F JUMP JUMPDEST POP PUSH1 0x80 DUP3 ADD MLOAD PUSH2 0x19DA PUSH1 0xE0 DUP6 ADD DUP3 PUSH2 0x16EA JUMP JUMPDEST POP POP POP POP JUMP JUMPDEST PUSH1 0x0 PUSH2 0x100 DUP3 ADD SWAP1 POP PUSH2 0x19F6 PUSH1 0x0 DUP4 ADD DUP5 PUSH2 0x1977 JUMP JUMPDEST SWAP3 SWAP2 POP POP JUMP JUMPDEST PUSH1 0x0 DUP3 DUP3 MSTORE PUSH1 0x20 DUP3 ADD SWAP1 POP SWAP3 SWAP2 POP POP JUMP JUMPDEST PUSH32 0x596F7520617265206E6F7420746865206275796572206F662074686973206F72 PUSH1 0x0 DUP3 ADD MSTORE PUSH32 0x6465720000000000000000000000000000000000000000000000000000000000 PUSH1 0x20 DUP3 ADD MSTORE POP JUMP JUMPDEST PUSH1 0x0 PUSH2 0x1A69 PUSH1 0x23 DUP4 PUSH2 0x19FC JUMP JUMPDEST SWAP2 POP PUSH2 0x1A74 DUP3 PUSH2 0x1A0D JUMP JUMPDEST PUSH1 0x40 DUP3 ADD SWAP1 POP SWAP2 SWAP1 POP JUMP JUMPDEST PUSH1 0x0 PUSH1 0x20 DUP3 ADD SWAP1 POP DUP2 DUP2 SUB PUSH1 0x0 DUP4 ADD MSTORE PUSH2 0x1A98 DUP2 PUSH2 0x1A5C JUMP JUMPDEST SWAP1 POP SWAP2 SWAP1 POP JUMP JUMPDEST PUSH32 0x4F726465722063616E6E6F742062652063616E63656C65640000000000000000 PUSH1 0x0 DUP3 ADD MSTORE POP JUMP JUMPDEST PUSH1 0x0 PUSH2 0x1AD5 PUSH1 0x18 DUP4 PUSH2 0x19FC JUMP JUMPDEST SWAP2 POP PUSH2 0x1AE0 DUP3 PUSH2 0x1A9F JUMP JUMPDEST PUSH1 0x20 DUP3 ADD SWAP1 POP SWAP2 SWAP1 POP JUMP JUMPDEST PUSH1 0x0 PUSH1 0x20 DUP3 ADD SWAP1 POP DUP2 DUP2 SUB PUSH1 0x0 DUP4 ADD MSTORE PUSH2 0x1B04 DUP2 PUSH2 0x1AC8 JUMP JUMPDEST SWAP1 POP SWAP2 SWAP1 POP JUMP JUMPDEST PUSH1 0x0 PUSH1 0x40 DUP3 ADD SWAP1 POP PUSH2 0x1B20 PUSH1 0x0 DUP4 ADD DUP6 PUSH2 0x14BD JUMP JUMPDEST PUSH2 0x1B2D PUSH1 0x20 DUP4 ADD DUP5 PUSH2 0x188A JUMP JUMPDEST SWAP4 SWAP3 POP POP POP JUMP JUMPDEST PUSH32 0x4E487B7100000000000000000000000000000000000000000000000000000000 PUSH1 0x0 MSTORE PUSH1 0x41 PUSH1 0x4 MSTORE PUSH1 0x24 PUSH1 0x0 REVERT JUMPDEST PUSH32 0x4E487B7100000000000000000000000000000000000000000000000000000000 PUSH1 0x0 MSTORE PUSH1 0x11 PUSH1 0x4 MSTORE PUSH1 0x24 PUSH1 0x0 REVERT JUMPDEST PUSH1 0x0 PUSH2 0x1B9D DUP3 PUSH2 0x14B3 JUMP JUMPDEST SWAP2 POP PUSH2 0x1BA8 DUP4 PUSH2 0x14B3 JUMP JUMPDEST SWAP3 POP DUP3 DUP3 SUB SWAP1 POP DUP2 DUP2 GT ISZERO PUSH2 0x1BC0 JUMPI PUSH2 0x1BBF PUSH2 0x1B63 JUMP JUMPDEST JUMPDEST SWAP3 SWAP2 POP POP JUMP JUMPDEST PUSH32 0x4E487B7100000000000000000000000000000000000000000000000000000000 PUSH1 0x0 MSTORE PUSH1 0x32 PUSH1 0x4 MSTORE PUSH1 0x24 PUSH1 0x0 REVERT JUMPDEST PUSH1 0x0 PUSH2 0x1C00 DUP3 PUSH2 0x14B3 JUMP JUMPDEST SWAP2 POP PUSH32 0xFFFFFFFFFFFFFFFFFFFFFFFFFFFFFFFFFFFFFFFFFFFFFFFFFFFFFFFFFFFFFFFF DUP3 SUB PUSH2 0x1C32 JUMPI PUSH2 0x1C31 PUSH2 0x1B63 JUMP JUMPDEST JUMPDEST PUSH1 0x1 DUP3 ADD SWAP1 POP SWAP2 SWAP1 POP JUMP JUMPDEST PUSH32 0x4F72646572206973206E6F742070656E64696E67000000000000000000000000 PUSH1 0x0 DUP3 ADD MSTORE POP JUMP JUMPDEST PUSH1 0x0 PUSH2 0x1C73 PUSH1 0x14 DUP4 PUSH2 0x19FC JUMP JUMPDEST SWAP2 POP PUSH2 0x1C7E DUP3 PUSH2 0x1C3D JUMP JUMPDEST PUSH1 0x20 DUP3 ADD SWAP1 POP SWAP2 SWAP1 POP JUMP JUMPDEST PUSH1 0x0 PUSH1 0x20 DUP3 ADD SWAP1 POP DUP2 DUP2 SUB PUSH1 0x0 DUP4 ADD MSTORE PUSH2 0x1CA2 DUP2 PUSH2 0x1C66 JUMP JUMPDEST SWAP1 POP SWAP2 SWAP1 POP JUMP JUMPDEST PUSH1 0x0 PUSH2 0x1CB4 DUP3 PUSH2 0x14B3 JUMP JUMPDEST SWAP2 POP PUSH2 0x1CBF DUP4 PUSH2 0x14B3 JUMP JUMPDEST SWAP3 POP DUP3 DUP3 MUL PUSH2 0x1CCD DUP2 PUSH2 0x14B3 JUMP JUMPDEST SWAP2 POP DUP3 DUP3 DIV DUP5 EQ DUP4 ISZERO OR PUSH2 0x1CE4 JUMPI PUSH2 0x1CE3 PUSH2 0x1B63 JUMP JUMPDEST JUMPDEST POP SWAP3 SWAP2 POP POP JUMP JUMPDEST PUSH32 0x496E636F7272656374207061796D656E7420616D6F756E740000000000000000 PUSH1 0x0 DUP3 ADD MSTORE POP JUMP JUMPDEST PUSH1 0x0 PUSH2 0x1D21 PUSH1 0x18 DUP4 PUSH2 0x19FC JUMP JUMPDEST SWAP2 POP PUSH2 0x1D2C DUP3 PUSH2 0x1CEB JUMP JUMPDEST PUSH1 0x20 DUP3 ADD SWAP1 POP SWAP2 SWAP1 POP JUMP JUMPDEST PUSH1 0x0 PUSH1 0x20 DUP3 ADD SWAP1 POP DUP2 DUP2 SUB PUSH1 0x0 DUP4 ADD MSTORE PUSH2 0x1D50 DUP2 PUSH2 0x1D14 JUMP JUMPDEST SWAP1 POP SWAP2 SWAP1 POP JUMP JUMPDEST PUSH1 0x0 DUP2 SWAP1 POP SWAP3 SWAP2 POP POP JUMP JUMPDEST POP JUMP JUMPDEST PUSH1 0x0 PUSH2 0x1D72 PUSH1 0x0 DUP4 PUSH2 0x1D57 JUMP JUMPDEST SWAP2 POP PUSH2 0x1D7D DUP3 PUSH2 0x1D62 JUMP JUMPDEST PUSH1 0x0 DUP3 ADD SWAP1 POP SWAP2 SWAP1 POP JUMP JUMPDEST PUSH1 0x0 PUSH2 0x1D93 DUP3 PUSH2 0x1D65 JUMP JUMPDEST SWAP2 POP DUP2 SWAP1 POP SWAP2 SWAP1 POP JUMP JUMPDEST PUSH32 0x5472616E7366657220746F2073656C6C6572206661696C656400000000000000 PUSH1 0x0 DUP3 ADD MSTORE POP JUMP JUMPDEST PUSH1 0x0 PUSH2 0x1DD3 PUSH1 0x19 DUP4 PUSH2 0x19FC JUMP JUMPDEST SWAP2 POP PUSH2 0x1DDE DUP3 PUSH2 0x1D9D JUMP JUMPDEST PUSH1 0x20 DUP3 ADD SWAP1 POP SWAP2 SWAP1 POP JUMP JUMPDEST PUSH1 0x0 PUSH1 0x20 DUP3 ADD SWAP1 POP DUP2 DUP2 SUB PUSH1 0x0 DUP4 ADD MSTORE PUSH2 0x1E02 DUP2 PUSH2 0x1DC6 JUMP JUMPDEST SWAP1 POP SWAP2 SWAP1 POP JUMP JUMPDEST PUSH1 0x0 PUSH1 0x60 DUP3 ADD SWAP1 POP PUSH2 0x1E1E PUSH1 0x0 DUP4 ADD DUP7 PUSH2 0x14BD JUMP JUMPDEST PUSH2 0x1E2B PUSH1 0x20 DUP4 ADD DUP6 PUSH2 0x188A JUMP JUMPDEST PUSH2 0x1E38 PUSH1 0x40 DUP4 ADD DUP5 PUSH2 0x14BD JUMP JUMPDEST SWAP5 SWAP4 POP POP POP POP JUMP INVALID LOG2 PUSH5 0x6970667358 0x22 SLT KECCAK256 SELFDESTRUCT BALANCE 0xD4 PUSH18 0xEBB779D8B44BE3C95B1329DBB19038355B52 SELFDESTRUCT RETURNDATASIZE PUSH30 0xDC786787EA3C0864736F6C634300081B0033000000000000000000000000 "},"methodIdentifiers":{"buyerOrders(address,uint256)":"4500cb60","cancelOrder(uint256)":"514fcac7","completeOrder(uint256)":"b6adaaff","createOrder(address,uint256,uint256,uint256,address)":"dbe11bb3","getAllOrders()":"7bea0d1c","getBuyerOrders(address)":"a45f2ebc","getOrderDetails(uint256)":"ec7dd7bb","getSellerOrders(address)":"e4cbac40","orderCount()":"2453ffa8","orders(uint256)":"a85c38ef","sellerOrders(address,uint256)":"45cb4505"}}}}}