{
  "_format": "hh-sol-artifact-1",
  "contractName": "OrderManagement",
  "sourceName": "contracts/OrderManagement.sol",
  "abi": [
    {
      "anonymous": false,
      "inputs": [
        {
          "indexed": false,
          "internalType": "uint256",
          "name": "orderId",
          "type": "uint256"
        },
        {
          "indexed": false,
          "internalType": "address",
          "name": "buyer",
          "type": "address"
        }
      ],
      "name": "OrderCanceled",
      "type": "event"
    },
    {
      "anonymous": false,
      "inputs": [
        {
          "indexed": false,
          "internalType": "uint256",
          "name": "orderId",
          "type": "uint256"
        },
        {
          "indexed": false,
          "internalType": "address",
          "name": "buyer",
          "type": "address"
        }
      ],
      "name": "OrderCompleted",
      "type": "event"
    },
    {
      "anonymous": false,
      "inputs": [
        {
          "indexed": false,
          "internalType": "uint256",
          "name": "orderId",
          "type": "uint256"
        },
        {
          "indexed": false,
          "internalType": "address",
          "name": "buyer",
          "type": "address"
        },
        {
          "indexed": false,
          "internalType": "uint256",
          "name": "totalPrice",
          "type": "uint256"
        }
      ],
      "name": "OrderCreated",
      "type": "event"
    },
    {
      "anonymous": false,
      "inputs": [
        {
          "indexed": false,
          "internalType": "uint256",
          "name": "orderId",
          "type": "uint256"
        },
        {
          "indexed": false,
          "internalType": "address",
          "name": "seller",
          "type": "address"
        },
        {
          "indexed": false,
          "internalType": "uint256",
          "name": "amount",
          "type": "uint256"
        }
      ],
      "name": "PaymentTransferred",
      "type": "event"
    },
    {
      "inputs": [
        {
          "internalType": "address",
          "name": "",
          "type": "address"
        },
        {
          "internalType": "uint256",
          "name": "",
          "type": "uint256"
        }
      ],
      "name": "buyerOrders",
      "outputs": [
        {
          "internalType": "uint256",
          "name": "",
          "type": "uint256"
        }
      ],
      "stateMutability": "view",
      "type": "function"
    },
    {
      "inputs": [
        {
          "internalType": "uint256",
          "name": "_orderId",
          "type": "uint256"
        }
      ],
      "name": "cancelOrder",
      "outputs": [],
      "stateMutability": "nonpayable",
      "type": "function"
    },
    {
      "inputs": [
        {
          "internalType": "uint256",
          "name": "_orderId",
          "type": "uint256"
        }
      ],
      "name": "completeOrder",
      "outputs": [],
      "stateMutability": "nonpayable",
      "type": "function"
    },
    {
      "inputs": [
        {
          "internalType": "address",
          "name": "_buyer",
          "type": "address"
        },
        {
          "internalType": "uint256",
          "name": "_productId",
          "type": "uint256"
        },
        {
          "internalType": "uint256",
          "name": "_quantity",
          "type": "uint256"
        },
        {
          "internalType": "uint256",
          "name": "_price",
          "type": "uint256"
        },
        {
          "internalType": "address",
          "name": "_seller",
          "type": "address"
        }
      ],
      "name": "createOrder",
      "outputs": [],
      "stateMutability": "payable",
      "type": "function"
    },
    {
      "inputs": [],
      "name": "getAllOrders",
      "outputs": [
        {
          "components": [
            {
              "internalType": "uint256",
              "name": "id",
              "type": "uint256"
            },
            {
              "components": [
                {
                  "internalType": "uint256",
                  "name": "productId",
                  "type": "uint256"
                },
                {
                  "internalType": "uint256",
                  "name": "quantity",
                  "type": "uint256"
                },
                {
                  "internalType": "uint256",
                  "name": "price",
                  "type": "uint256"
                },
                {
                  "internalType": "address",
                  "name": "seller",
                  "type": "address"
                }
              ],
              "internalType": "struct OrderManagement.OrderItem",
              "name": "item",
              "type": "tuple"
            },
            {
              "internalType": "address",
              "name": "buyer",
              "type": "address"
            },
            {
              "internalType": "uint256",
              "name": "totalPrice",
              "type": "uint256"
            },
            {
              "internalType": "enum OrderManagement.OrderStatus",
              "name": "status",
              "type": "uint8"
            }
          ],
          "internalType": "struct OrderManagement.Order[]",
          "name": "",
          "type": "tuple[]"
        }
      ],
      "stateMutability": "view",
      "type": "function"
    },
    {
      "inputs": [
        {
          "internalType": "address",
          "name": "_buyer",
          "type": "address"
        }
      ],
      "name": "getBuyerOrders",
      "outputs": [
        {
          "components": [
            {
              "internalType": "uint256",
              "name": "id",
              "type": "uint256"
            },
            {
              "components": [
                {
                  "internalType": "uint256",
                  "name": "productId",
                  "type": "uint256"
                },
                {
                  "internalType": "uint256",
                  "name": "quantity",
                  "type": "uint256"
                },
                {
                  "internalType": "uint256",
                  "name": "price",
                  "type": "uint256"
                },
                {
                  "internalType": "address",
                  "name": "seller",
                  "type": "address"
                }
              ],
              "internalType": "struct OrderManagement.OrderItem",
              "name": "item",
              "type": "tuple"
            },
            {
              "internalType": "address",
              "name": "buyer",
              "type": "address"
            },
            {
              "internalType": "uint256",
              "name": "totalPrice",
              "type": "uint256"
            },
            {
              "internalType": "enum OrderManagement.OrderStatus",
              "name": "status",
              "type": "uint8"
            }
          ],
          "internalType": "struct OrderManagement.Order[]",
          "name": "",
          "type": "tuple[]"
        }
      ],
      "stateMutability": "view",
      "type": "function"
    },
    {
      "inputs": [
        {
          "internalType": "uint256",
          "name": "_orderId",
          "type": "uint256"
        }
      ],
      "name": "getOrderDetails",
      "outputs": [
        {
          "components": [
            {
              "internalType": "uint256",
              "name": "id",
              "type": "uint256"
            },
            {
              "components": [
                {
                  "internalType": "uint256",
                  "name": "productId",
                  "type": "uint256"
                },
                {
                  "internalType": "uint256",
                  "name": "quantity",
                  "type": "uint256"
                },
                {
                  "internalType": "uint256",
                  "name": "price",
                  "type": "uint256"
                },
                {
                  "internalType": "address",
                  "name": "seller",
                  "type": "address"
                }
              ],
              "internalType": "struct OrderManagement.OrderItem",
              "name": "item",
              "type": "tuple"
            },
            {
              "internalType": "address",
              "name": "buyer",
              "type": "address"
            },
            {
              "internalType": "uint256",
              "name": "totalPrice",
              "type": "uint256"
            },
            {
              "internalType": "enum OrderManagement.OrderStatus",
              "name": "status",
              "type": "uint8"
            }
          ],
          "internalType": "struct OrderManagement.Order",
          "name": "",
          "type": "tuple"
        }
      ],
      "stateMutability": "view",
      "type": "function"
    },
    {
      "inputs": [
        {
          "internalType": "address",
          "name": "_seller",
          "type": "address"
        }
      ],
      "name": "getSellerOrders",
      "outputs": [
        {
          "components": [
            {
              "internalType": "uint256",
              "name": "id",
              "type": "uint256"
            },
            {
              "components": [
                {
                  "internalType": "uint256",
                  "name": "productId",
                  "type": "uint256"
                },
                {
                  "internalType": "uint256",
                  "name": "quantity",
                  "type": "uint256"
                },
                {
                  "internalType": "uint256",
                  "name": "price",
                  "type": "uint256"
                },
                {
                  "internalType": "address",
                  "name": "seller",
                  "type": "address"
                }
              ],
              "internalType": "struct OrderManagement.OrderItem",
              "name": "item",
              "type": "tuple"
            },
            {
              "internalType": "address",
              "name": "buyer",
              "type": "address"
            },
            {
              "internalType": "uint256",
              "name": "totalPrice",
              "type": "uint256"
            },
            {
              "internalType": "enum OrderManagement.OrderStatus",
              "name": "status",
              "type": "uint8"
            }
          ],
          "internalType": "struct OrderManagement.Order[]",
          "name": "",
          "type": "tuple[]"
        }
      ],
      "stateMutability": "view",
      "type": "function"
    },
    {
      "inputs": [],
      "name": "orderCount",
      "outputs": [
        {
          "internalType": "uint256",
          "name": "",
          "type": "uint256"
        }
      ],
      "stateMutability": "view",
      "type": "function"
    },
    {
      "inputs": [
        {
          "internalType": "uint256",
          "name": "",
          "type": "uint256"
        }
      ],
      "name": "orders",
      "outputs": [
        {
          "internalType": "uint256",
          "name": "id",
          "type": "uint256"
        },
        {
          "components": [
            {
              "internalType": "uint256",
              "name": "productId",
              "type": "uint256"
            },
            {
              "internalType": "uint256",
              "name": "quantity",
              "type": "uint256"
            },
            {
              "internalType": "uint256",
              "name": "price",
              "type": "uint256"
            },
            {
              "internalType": "address",
              "name": "seller",
              "type": "address"
            }
          ],
          "internalType": "struct OrderManagement.OrderItem",
          "name": "item",
          "type": "tuple"
        },
        {
          "internalType": "address",
          "name": "buyer",
          "type": "address"
        },
        {
          "internalType": "uint256",
          "name": "totalPrice",
          "type": "uint256"
        },
        {
          "internalType": "enum OrderManagement.OrderStatus",
          "name": "status",
          "type": "uint8"
        }
      ],
      "stateMutability": "view",
      "type": "function"
    },
    {
      "inputs": [
        {
          "internalType": "address",
          "name": "",
          "type": "address"
        },
        {
          "internalType": "uint256",
          "name": "",
          "type": "uint256"
        }
      ],
      "name": "sellerOrders",
      "outputs": [
        {
          "internalType": "uint256",
          "name": "",
          "type": "uint256"
        }
      ],
      "stateMutability": "view",
      "type": "function"
    }
  ],
  "bytecode": "0x608060405260008055348015601357600080fd5b50611e76806100236000396000f3fe60806040526004361061009c5760003560e01c8063a45f2ebc11610064578063a45f2ebc1461019a578063a85c38ef146101d7578063b6adaaff14610218578063dbe11bb314610241578063e4cbac401461025d578063ec7dd7bb1461029a5761009c565b80632453ffa8146100a15780634500cb60146100cc57806345cb450514610109578063514fcac7146101465780637bea0d1c1461016f575b600080fd5b3480156100ad57600080fd5b506100b66102d7565b6040516100c391906114cc565b60405180910390f35b3480156100d857600080fd5b506100f360048036038101906100ee9190611576565b6102dd565b60405161010091906114cc565b60405180910390f35b34801561011557600080fd5b50610130600480360381019061012b9190611576565b61030e565b60405161013d91906114cc565b60405180910390f35b34801561015257600080fd5b5061016d600480360381019061016891906115b6565b61033f565b005b34801561017b57600080fd5b5061018461055d565b60405161019191906117e6565b60405180910390f35b3480156101a657600080fd5b506101c160048036038101906101bc9190611808565b610758565b6040516101ce91906117e6565b60405180910390f35b3480156101e357600080fd5b506101fe60048036038101906101f991906115b6565b6109ec565b60405161020f9594939291906118a8565b60405180910390f35b34801561022457600080fd5b5061023f600480360381019061023a91906115b6565b610acd565b005b61025b600480360381019061025691906118fc565b610c7c565b005b34801561026957600080fd5b50610284600480360381019061027f9190611808565b61102a565b60405161029191906117e6565b60405180910390f35b3480156102a657600080fd5b506102c160048036038101906102bc91906115b6565b6112be565b6040516102ce91906119e0565b60405180910390f35b60005481565b600260205281600052604060002081815481106102f957600080fd5b90600052602060002001600091509150505481565b6003602052816000526040600020818154811061032a57600080fd5b90600052602060002001600091509150505481565b60006001600083815260200190815260200160002090503373ffffffffffffffffffffffffffffffffffffffff168160050160009054906101000a900473ffffffffffffffffffffffffffffffffffffffff1673ffffffffffffffffffffffffffffffffffffffff16146103e8576040517f08c379a00000000000000000000000000000000000000000000000000000000081526004016103df90611a7f565b60405180910390fd5b600060028111156103fc576103fb611682565b5b8160070160009054906101000a900460ff1660028111156104205761041f611682565b5b14610460576040517f08c379a000000000000000000000000000000000000000000000000000000000815260040161045790611aeb565b60405180910390fd5b60028160070160006101000a81548160ff0219169083600281111561048857610487611682565b5b02179055508060050160009054906101000a900473ffffffffffffffffffffffffffffffffffffffff1673ffffffffffffffffffffffffffffffffffffffff166108fc82600601549081150290604051600060405180830381858888f193505050501580156104fb573d6000803e3d6000fd5b507f9384174c8517f5537b08e79211fc039e8a098571a3a2b4cb21dfa6f3237e8de1828260050160009054906101000a900473ffffffffffffffffffffffffffffffffffffffff16604051610551929190611b0b565b60405180910390a15050565b60606000805467ffffffffffffffff81111561057c5761057b611b34565b5b6040519080825280602002602001820160405280156105b557816020015b6105a2611418565b81526020019060019003908161059a5790505b5090506000600190505b600054811161075057600160008281526020019081526020016000206040518060a001604052908160008201548152602001600182016040518060800160405290816000820154815260200160018201548152602001600282015481526020016003820160009054906101000a900473ffffffffffffffffffffffffffffffffffffffff1673ffffffffffffffffffffffffffffffffffffffff1673ffffffffffffffffffffffffffffffffffffffff168152505081526020016005820160009054906101000a900473ffffffffffffffffffffffffffffffffffffffff1673ffffffffffffffffffffffffffffffffffffffff1673ffffffffffffffffffffffffffffffffffffffff168152602001600682015481526020016007820160009054906101000a900460ff1660028111156106fd576106fc611682565b5b600281111561070f5761070e611682565b5b81525050826001836107219190611b92565b8151811061073257610731611bc6565b5b6020026020010181905250808061074890611bf5565b9150506105bf565b508091505090565b60606000600260008473ffffffffffffffffffffffffffffffffffffffff1673ffffffffffffffffffffffffffffffffffffffff1681526020019081526020016000208054806020026020016040519081016040528092919081815260200182805480156107e557602002820191906000526020600020905b8154815260200190600101908083116107d1575b505050505090506000815167ffffffffffffffff81111561080957610808611b34565b5b60405190808252806020026020018201604052801561084257816020015b61082f611418565b8152602001906001900390816108275790505b50905060005b82518110156109e1576001600084838151811061086857610867611bc6565b5b602002602001015181526020019081526020016000206040518060a001604052908160008201548152602001600182016040518060800160405290816000820154815260200160018201548152602001600282015481526020016003820160009054906101000a900473ffffffffffffffffffffffffffffffffffffffff1673ffffffffffffffffffffffffffffffffffffffff1673ffffffffffffffffffffffffffffffffffffffff168152505081526020016005820160009054906101000a900473ffffffffffffffffffffffffffffffffffffffff1673ffffffffffffffffffffffffffffffffffffffff1673ffffffffffffffffffffffffffffffffffffffff168152602001600682015481526020016007820160009054906101000a900460ff1660028111156109a05761099f611682565b5b60028111156109b2576109b1611682565b5b815250508282815181106109c9576109c8611bc6565b5b60200260200101819052508080600101915050610848565b508092505050919050565b6001602052806000526040600020600091509050806000015490806001016040518060800160405290816000820154815260200160018201548152602001600282015481526020016003820160009054906101000a900473ffffffffffffffffffffffffffffffffffffffff1673ffffffffffffffffffffffffffffffffffffffff1673ffffffffffffffffffffffffffffffffffffffff1681525050908060050160009054906101000a900473ffffffffffffffffffffffffffffffffffffffff16908060060154908060070160009054906101000a900460ff16905085565b60006001600083815260200190815260200160002090503373ffffffffffffffffffffffffffffffffffffffff168160050160009054906101000a900473ffffffffffffffffffffffffffffffffffffffff1673ffffffffffffffffffffffffffffffffffffffff1614610b76576040517f08c379a0000000000000000000000000000000000000000000000000000000008152600401610b6d90611a7f565b60405180910390fd5b60006002811115610b8a57610b89611682565b5b8160070160009054906101000a900460ff166002811115610bae57610bad611682565b5b14610bee576040517f08c379a0000000000000000000000000000000000000000000000000000000008152600401610be590611c89565b60405180910390fd5b60018160070160006101000a81548160ff02191690836002811115610c1657610c15611682565b5b02179055507f19800bcb0ac4476f8c5dc58e76aa820026d28a52f87da5213e57d16b75ae0de9828260050160009054906101000a900473ffffffffffffffffffffffffffffffffffffffff16604051610c70929190611b0b565b60405180910390a15050565b60008383610c8a9190611ca9565b9050803414610cce576040517f08c379a0000000000000000000000000000000000000000000000000000000008152600401610cc590611d37565b60405180910390fd5b600080815480929190610ce090611bf5565b91905055506000600160008054815260200190815260200160002090506000548160000181905550868160050160006101000a81548173ffffffffffffffffffffffffffffffffffffffff021916908373ffffffffffffffffffffffffffffffffffffffff16021790555081816006018190555060008160070160006101000a81548160ff02191690836002811115610d7c57610d7b611682565b5b0217905550600060405180608001604052808881526020018781526020018681526020018573ffffffffffffffffffffffffffffffffffffffff168152509050808260010160008201518160000155602082015181600101556040820151816002015560608201518160030160006101000a81548173ffffffffffffffffffffffffffffffffffffffff021916908373ffffffffffffffffffffffffffffffffffffffff16021790555090505060008473ffffffffffffffffffffffffffffffffffffffff1684604051610e4f90611d88565b60006040518083038185875af1925050503d8060008114610e8c576040519150601f19603f3d011682016040523d82523d6000602084013e610e91565b606091505b5050905080610ed5576040517f08c379a0000000000000000000000000000000000000000000000000000000008152600401610ecc90611de9565b60405180910390fd5b7f64768e2ac08926aed9a23761ef7cf9bb1c7d9971cfab10846bb88ceb9353c5936000548686604051610f0a93929190611e09565b60405180910390a1600260008a73ffffffffffffffffffffffffffffffffffffffff1673ffffffffffffffffffffffffffffffffffffffff1681526020019081526020016000206000549080600181540180825580915050600190039060005260206000200160009091909190915055600360008673ffffffffffffffffffffffffffffffffffffffff1673ffffffffffffffffffffffffffffffffffffffff16815260200190815260200160002060005490806001815401808255809150506001900390600052602060002001600090919091909150557f28eb86fd03c9bd96a8a83e4a46ab2ad257b70cea893d98ad6d482e96aa25fad06000548a8660405161101793929190611e09565b60405180910390a1505050505050505050565b60606000600360008473ffffffffffffffffffffffffffffffffffffffff1673ffffffffffffffffffffffffffffffffffffffff1681526020019081526020016000208054806020026020016040519081016040528092919081815260200182805480156110b757602002820191906000526020600020905b8154815260200190600101908083116110a3575b505050505090506000815167ffffffffffffffff8111156110db576110da611b34565b5b60405190808252806020026020018201604052801561111457816020015b611101611418565b8152602001906001900390816110f95790505b50905060005b82518110156112b3576001600084838151811061113a57611139611bc6565b5b602002602001015181526020019081526020016000206040518060a001604052908160008201548152602001600182016040518060800160405290816000820154815260200160018201548152602001600282015481526020016003820160009054906101000a900473ffffffffffffffffffffffffffffffffffffffff1673ffffffffffffffffffffffffffffffffffffffff1673ffffffffffffffffffffffffffffffffffffffff168152505081526020016005820160009054906101000a900473ffffffffffffffffffffffffffffffffffffffff1673ffffffffffffffffffffffffffffffffffffffff1673ffffffffffffffffffffffffffffffffffffffff168152602001600682015481526020016007820160009054906101000a900460ff16600281111561127257611271611682565b5b600281111561128457611283611682565b5b8152505082828151811061129b5761129a611bc6565b5b6020026020010181905250808060010191505061111a565b508092505050919050565b6112c6611418565b600160008381526020019081526020016000206040518060a001604052908160008201548152602001600182016040518060800160405290816000820154815260200160018201548152602001600282015481526020016003820160009054906101000a900473ffffffffffffffffffffffffffffffffffffffff1673ffffffffffffffffffffffffffffffffffffffff1673ffffffffffffffffffffffffffffffffffffffff168152505081526020016005820160009054906101000a900473ffffffffffffffffffffffffffffffffffffffff1673ffffffffffffffffffffffffffffffffffffffff1673ffffffffffffffffffffffffffffffffffffffff168152602001600682015481526020016007820160009054906101000a900460ff1660028111156113fb576113fa611682565b5b600281111561140d5761140c611682565b5b815250509050919050565b6040518060a0016040528060008152602001611432611475565b8152602001600073ffffffffffffffffffffffffffffffffffffffff168152602001600081526020016000600281111561146f5761146e611682565b5b81525090565b6040518060800160405280600081526020016000815260200160008152602001600073ffffffffffffffffffffffffffffffffffffffff1681525090565b6000819050919050565b6114c6816114b3565b82525050565b60006020820190506114e160008301846114bd565b92915050565b600080fd5b600073ffffffffffffffffffffffffffffffffffffffff82169050919050565b6000611517826114ec565b9050919050565b6115278161150c565b811461153257600080fd5b50565b6000813590506115448161151e565b92915050565b611553816114b3565b811461155e57600080fd5b50565b6000813590506115708161154a565b92915050565b6000806040838503121561158d5761158c6114e7565b5b600061159b85828601611535565b92505060206115ac85828601611561565b9150509250929050565b6000602082840312156115cc576115cb6114e7565b5b60006115da84828501611561565b91505092915050565b600081519050919050565b600082825260208201905092915050565b6000819050602082019050919050565b611618816114b3565b82525050565b6116278161150c565b82525050565b608082016000820151611643600085018261160f565b506020820151611656602085018261160f565b506040820151611669604085018261160f565b50606082015161167c606085018261161e565b50505050565b7f4e487b7100000000000000000000000000000000000000000000000000000000600052602160045260246000fd5b600381106116c2576116c1611682565b5b50565b60008190506116d3826116b1565b919050565b60006116e3826116c5565b9050919050565b6116f3816116d8565b82525050565b61010082016000820151611710600085018261160f565b506020820151611723602085018261162d565b50604082015161173660a085018261161e565b50606082015161174960c085018261160f565b50608082015161175c60e08501826116ea565b50505050565b600061176e83836116f9565b6101008301905092915050565b6000602082019050919050565b6000611793826115e3565b61179d81856115ee565b93506117a8836115ff565b8060005b838110156117d95781516117c08882611762565b97506117cb8361177b565b9250506001810190506117ac565b5085935050505092915050565b600060208201905081810360008301526118008184611788565b905092915050565b60006020828403121561181e5761181d6114e7565b5b600061182c84828501611535565b91505092915050565b60808201600082015161184b600085018261160f565b50602082015161185e602085018261160f565b506040820151611871604085018261160f565b506060820151611884606085018261161e565b50505050565b6118938161150c565b82525050565b6118a2816116d8565b82525050565b6000610100820190506118be60008301886114bd565b6118cb6020830187611835565b6118d860a083018661188a565b6118e560c08301856114bd565b6118f260e0830184611899565b9695505050505050565b600080600080600060a08688031215611918576119176114e7565b5b600061192688828901611535565b955050602061193788828901611561565b945050604061194888828901611561565b935050606061195988828901611561565b925050608061196a88828901611535565b9150509295509295909350565b6101008201600082015161198e600085018261160f565b5060208201516119a1602085018261162d565b5060408201516119b460a085018261161e565b5060608201516119c760c085018261160f565b5060808201516119da60e08501826116ea565b50505050565b6000610100820190506119f66000830184611977565b92915050565b600082825260208201905092915050565b7f596f7520617265206e6f7420746865206275796572206f662074686973206f7260008201527f6465720000000000000000000000000000000000000000000000000000000000602082015250565b6000611a696023836119fc565b9150611a7482611a0d565b604082019050919050565b60006020820190508181036000830152611a9881611a5c565b9050919050565b7f4f726465722063616e6e6f742062652063616e63656c65640000000000000000600082015250565b6000611ad56018836119fc565b9150611ae082611a9f565b602082019050919050565b60006020820190508181036000830152611b0481611ac8565b9050919050565b6000604082019050611b2060008301856114bd565b611b2d602083018461188a565b9392505050565b7f4e487b7100000000000000000000000000000000000000000000000000000000600052604160045260246000fd5b7f4e487b7100000000000000000000000000000000000000000000000000000000600052601160045260246000fd5b6000611b9d826114b3565b9150611ba8836114b3565b9250828203905081811115611bc057611bbf611b63565b5b92915050565b7f4e487b7100000000000000000000000000000000000000000000000000000000600052603260045260246000fd5b6000611c00826114b3565b91507fffffffffffffffffffffffffffffffffffffffffffffffffffffffffffffffff8203611c3257611c31611b63565b5b600182019050919050565b7f4f72646572206973206e6f742070656e64696e67000000000000000000000000600082015250565b6000611c736014836119fc565b9150611c7e82611c3d565b602082019050919050565b60006020820190508181036000830152611ca281611c66565b9050919050565b6000611cb4826114b3565b9150611cbf836114b3565b9250828202611ccd816114b3565b91508282048414831517611ce457611ce3611b63565b5b5092915050565b7f496e636f7272656374207061796d656e7420616d6f756e740000000000000000600082015250565b6000611d216018836119fc565b9150611d2c82611ceb565b602082019050919050565b60006020820190508181036000830152611d5081611d14565b9050919050565b600081905092915050565b50565b6000611d72600083611d57565b9150611d7d82611d62565b600082019050919050565b6000611d9382611d65565b9150819050919050565b7f5472616e7366657220746f2073656c6c6572206661696c656400000000000000600082015250565b6000611dd36019836119fc565b9150611dde82611d9d565b602082019050919050565b60006020820190508181036000830152611e0281611dc6565b9050919050565b6000606082019050611e1e60008301866114bd565b611e2b602083018561188a565b611e3860408301846114bd565b94935050505056fea2646970667358221220ff31d471ebb779d8b44be3c95b1329dbb19038355b52ff3d7ddc786787ea3c0864736f6c634300081b0033",
  "linkReferences": {},
  "deployedLinkReferences": {}
}