{
  "_format": "hh-sol-artifact-1",
  "contractName": "UserManagement",
  "sourceName": "contracts/UserManagement.sol",
  "abi": [
    {
      "inputs": [],
      "stateMutability": "nonpayable",
      "type": "constructor"
    },
    {
      "anonymous": false,
      "inputs": [
        {
          "indexed": true,
          "internalType": "address",
          "name": "userAddress",
          "type": "address"
        },
        {
          "indexed": false,
          "internalType": "string",
          "name": "name",
          "type": "string"
        },
        {
          "indexed": false,
          "internalType": "string",
          "name": "email",
          "type": "string"
        },
        {
          "indexed": false,
          "internalType": "enum UserManagement.Role",
          "name": "role",
          "type": "uint8"
        }
      ],
      "name": "UserDetailsUpdated",
      "type": "event"
    },
    {
      "anonymous": false,
      "inputs": [
        {
          "indexed": false,
          "internalType": "string",
          "name": "name",
          "type": "string"
        },
        {
          "indexed": false,
          "internalType": "string",
          "name": "email",
          "type": "string"
        },
        {
          "indexed": true,
          "internalType": "address",
          "name": "userAddress",
          "type": "address"
        },
        {
          "indexed": false,
          "internalType": "enum UserManagement.Role",
          "name": "role",
          "type": "uint8"
        }
      ],
      "name": "UserRegistered",
      "type": "event"
    },
    {
      "inputs": [],
      "name": "admin",
      "outputs": [
        {
          "internalType": "address",
          "name": "",
          "type": "address"
        }
      ],
      "stateMutability": "view",
      "type": "function"
    },
    {
      "inputs": [
        {
          "internalType": "address",
          "name": "user",
          "type": "address"
        }
      ],
      "name": "getUserDetails",
      "outputs": [
        {
          "internalType": "string",
          "name": "name",
          "type": "string"
        },
        {
          "internalType": "string",
          "name": "email",
          "type": "string"
        },
        {
          "internalType": "enum UserManagement.Role",
          "name": "role",
          "type": "uint8"
        },
        {
          "internalType": "bool",
          "name": "isRegistered",
          "type": "bool"
        }
      ],
      "stateMutability": "view",
      "type": "function"
    },
    {
      "inputs": [
        {
          "internalType": "address",
          "name": "user",
          "type": "address"
        }
      ],
      "name": "getUserRole",
      "outputs": [
        {
          "internalType": "enum UserManagement.Role",
          "name": "",
          "type": "uint8"
        }
      ],
      "stateMutability": "view",
      "type": "function"
    },
    {
      "inputs": [
        {
          "internalType": "address",
          "name": "user",
          "type": "address"
        }
      ],
      "name": "isUserRegistered",
      "outputs": [
        {
          "internalType": "bool",
          "name": "",
          "type": "bool"
        }
      ],
      "stateMutability": "view",
      "type": "function"
    },
    {
      "inputs": [
        {
          "internalType": "string",
          "name": "name",
          "type": "string"
        },
        {
          "internalType": "string",
          "name": "email",
          "type": "string"
        },
        {
          "internalType": "address",
          "name": "userAddress",
          "type": "address"
        },
        {
          "internalType": "enum UserManagement.Role",
          "name": "role",
          "type": "uint8"
        }
      ],
      "name": "register",
      "outputs": [],
      "stateMutability": "nonpayable",
      "type": "function"
    },
    {
      "inputs": [
        {
          "internalType": "string",
          "name": "name",
          "type": "string"
        },
        {
          "internalType": "string",
          "name": "email",
          "type": "string"
        },
        {
          "internalType": "enum UserManagement.Role",
          "name": "role",
          "type": "uint8"
        }
      ],
      "name": "updateUserDetails",
      "outputs": [],
      "stateMutability": "nonpayable",
      "type": "function"
    },
    {
      "inputs": [
        {
          "internalType": "address",
          "name": "userAddress",
          "type": "address"
        },
        {
          "internalType": "enum UserManagement.Role",
          "name": "newRole",
          "type": "uint8"
        }
      ],
      "name": "updateUserRole",
      "outputs": [],
      "stateMutability": "nonpayable",
      "type": "function"
    }
  ],
  "bytecode": "0x6080604052348015600f57600080fd5b50336000806101000a81548173ffffffffffffffffffffffffffffffffffffffff021916908373ffffffffffffffffffffffffffffffffffffffff16021790555061166b8061005f6000396000f3fe608060405234801561001057600080fd5b506004361061007d5760003560e01c8063c291fe621161005b578063c291fe62146100fe578063cc3d967b1461011a578063f72e20581461014d578063f851a440146101695761007d565b8063163f75221461008257806327820851146100b2578063886ac08e146100e2575b600080fd5b61009c60048036038101906100979190610c0f565b610187565b6040516100a99190610c57565b60405180910390f35b6100cc60048036038101906100c79190610c0f565b6101e0565b6040516100d99190610ce9565b60405180910390f35b6100fc60048036038101906100f79190610e6f565b6102c8565b005b61011860048036038101906101139190610efa565b6104b8565b005b610134600480360381019061012f9190610c0f565b610717565b6040516101449493929190610fb9565b60405180910390f35b6101676004803603810190610162919061100c565b610909565b005b610171610b79565b60405161017e91906110ba565b60405180910390f35b6000600160008373ffffffffffffffffffffffffffffffffffffffff1673ffffffffffffffffffffffffffffffffffffffff16815260200190815260200160002060020160019054906101000a900460ff169050919050565b6000600160008373ffffffffffffffffffffffffffffffffffffffff1673ffffffffffffffffffffffffffffffffffffffff16815260200190815260200160002060020160019054906101000a900460ff16610271576040517f08c379a000000000000000000000000000000000000000000000000000000000815260040161026890611121565b60405180910390fd5b600160008373ffffffffffffffffffffffffffffffffffffffff1673ffffffffffffffffffffffffffffffffffffffff16815260200190815260200160002060020160009054906101000a900460ff169050919050565b600160003373ffffffffffffffffffffffffffffffffffffffff1673ffffffffffffffffffffffffffffffffffffffff16815260200190815260200160002060020160019054906101000a900460ff16610357576040517f08c379a000000000000000000000000000000000000000000000000000000000815260040161034e90611121565b60405180910390fd5b82600160003373ffffffffffffffffffffffffffffffffffffffff1673ffffffffffffffffffffffffffffffffffffffff16815260200190815260200160002060000190816103a69190611357565b5081600160003373ffffffffffffffffffffffffffffffffffffffff1673ffffffffffffffffffffffffffffffffffffffff16815260200190815260200160002060010190816103f69190611357565b5080600160003373ffffffffffffffffffffffffffffffffffffffff1673ffffffffffffffffffffffffffffffffffffffff16815260200190815260200160002060020160006101000a81548160ff0219169083600181111561045c5761045b610c72565b5b02179055503373ffffffffffffffffffffffffffffffffffffffff167fcd49332e7e3af162755d19d3797d055934bc3902d47a9e83bace011e2436632e8484846040516104ab93929190611429565b60405180910390a2505050565b60008054906101000a900473ffffffffffffffffffffffffffffffffffffffff1673ffffffffffffffffffffffffffffffffffffffff163373ffffffffffffffffffffffffffffffffffffffff1614610546576040517f08c379a000000000000000000000000000000000000000000000000000000000815260040161053d906114e0565b60405180910390fd5b600160008373ffffffffffffffffffffffffffffffffffffffff1673ffffffffffffffffffffffffffffffffffffffff16815260200190815260200160002060020160019054906101000a900460ff166105d5576040517f08c379a00000000000000000000000000000000000000000000000000000000081526004016105cc90611121565b60405180910390fd5b80600160008473ffffffffffffffffffffffffffffffffffffffff1673ffffffffffffffffffffffffffffffffffffffff16815260200190815260200160002060020160006101000a81548160ff0219169083600181111561063a57610639610c72565b5b02179055508173ffffffffffffffffffffffffffffffffffffffff167fcd49332e7e3af162755d19d3797d055934bc3902d47a9e83bace011e2436632e600160008573ffffffffffffffffffffffffffffffffffffffff1673ffffffffffffffffffffffffffffffffffffffff168152602001908152602001600020600001600160008673ffffffffffffffffffffffffffffffffffffffff1673ffffffffffffffffffffffffffffffffffffffff1681526020019081526020016000206001018460405161070b93929190611584565b60405180910390a25050565b6060806000806000600160008773ffffffffffffffffffffffffffffffffffffffff1673ffffffffffffffffffffffffffffffffffffffff16815260200190815260200160002060405180608001604052908160008201805461077990611170565b80601f01602080910402602001604051908101604052809291908181526020018280546107a590611170565b80156107f25780601f106107c7576101008083540402835291602001916107f2565b820191906000526020600020905b8154815290600101906020018083116107d557829003601f168201915b5050505050815260200160018201805461080b90611170565b80601f016020809104026020016040519081016040528092919081815260200182805461083790611170565b80156108845780601f1061085957610100808354040283529160200191610884565b820191906000526020600020905b81548152906001019060200180831161086757829003601f168201915b505050505081526020016002820160009054906101000a900460ff1660018111156108b2576108b1610c72565b5b60018111156108c4576108c3610c72565b5b81526020016002820160019054906101000a900460ff161515151581525050905080600001518160200151826040015183606001519450945094509450509193509193565b600160008373ffffffffffffffffffffffffffffffffffffffff1673ffffffffffffffffffffffffffffffffffffffff16815260200190815260200160002060020160019054906101000a900460ff1615610999576040517f08c379a000000000000000000000000000000000000000000000000000000000815260040161099090611615565b60405180910390fd5b6000808551116109de576040518060400160405280600781526020017f556e6b6e6f776e000000000000000000000000000000000000000000000000008152506109e0565b845b9050600080855111610a27576040518060400160405280601381526020017f756e6b6e6f776e40756e6b6e6f776e2e636f6d00000000000000000000000000815250610a29565b845b90506040518060800160405280838152602001828152602001846001811115610a5557610a54610c72565b5b815260200160011515815250600160008673ffffffffffffffffffffffffffffffffffffffff1673ffffffffffffffffffffffffffffffffffffffff1681526020019081526020016000206000820151816000019081610ab59190611357565b506020820151816001019081610acb9190611357565b5060408201518160020160006101000a81548160ff02191690836001811115610af757610af6610c72565b5b021790555060608201518160020160016101000a81548160ff0219169083151502179055509050508373ffffffffffffffffffffffffffffffffffffffff167fe6deec4232f91dce144d75e4e9a048609693ce3c963a5a5e0f7c7f1714d74ab1838386604051610b6993929190611429565b60405180910390a2505050505050565b60008054906101000a900473ffffffffffffffffffffffffffffffffffffffff1681565b6000604051905090565b600080fd5b600080fd5b600073ffffffffffffffffffffffffffffffffffffffff82169050919050565b6000610bdc82610bb1565b9050919050565b610bec81610bd1565b8114610bf757600080fd5b50565b600081359050610c0981610be3565b92915050565b600060208284031215610c2557610c24610ba7565b5b6000610c3384828501610bfa565b91505092915050565b60008115159050919050565b610c5181610c3c565b82525050565b6000602082019050610c6c6000830184610c48565b92915050565b7f4e487b7100000000000000000000000000000000000000000000000000000000600052602160045260246000fd5b60028110610cb257610cb1610c72565b5b50565b6000819050610cc382610ca1565b919050565b6000610cd382610cb5565b9050919050565b610ce381610cc8565b82525050565b6000602082019050610cfe6000830184610cda565b92915050565b600080fd5b600080fd5b6000601f19601f8301169050919050565b7f4e487b7100000000000000000000000000000000000000000000000000000000600052604160045260246000fd5b610d5782610d0e565b810181811067ffffffffffffffff82111715610d7657610d75610d1f565b5b80604052505050565b6000610d89610b9d565b9050610d958282610d4e565b919050565b600067ffffffffffffffff821115610db557610db4610d1f565b5b610dbe82610d0e565b9050602081019050919050565b82818337600083830152505050565b6000610ded610de884610d9a565b610d7f565b905082815260208101848484011115610e0957610e08610d09565b5b610e14848285610dcb565b509392505050565b600082601f830112610e3157610e30610d04565b5b8135610e41848260208601610dda565b91505092915050565b60028110610e5757600080fd5b50565b600081359050610e6981610e4a565b92915050565b600080600060608486031215610e8857610e87610ba7565b5b600084013567ffffffffffffffff811115610ea657610ea5610bac565b5b610eb286828701610e1c565b935050602084013567ffffffffffffffff811115610ed357610ed2610bac565b5b610edf86828701610e1c565b9250506040610ef086828701610e5a565b9150509250925092565b60008060408385031215610f1157610f10610ba7565b5b6000610f1f85828601610bfa565b9250506020610f3085828601610e5a565b9150509250929050565b600081519050919050565b600082825260208201905092915050565b60005b83811015610f74578082015181840152602081019050610f59565b60008484015250505050565b6000610f8b82610f3a565b610f958185610f45565b9350610fa5818560208601610f56565b610fae81610d0e565b840191505092915050565b60006080820190508181036000830152610fd38187610f80565b90508181036020830152610fe78186610f80565b9050610ff66040830185610cda565b6110036060830184610c48565b95945050505050565b6000806000806080858703121561102657611025610ba7565b5b600085013567ffffffffffffffff81111561104457611043610bac565b5b61105087828801610e1c565b945050602085013567ffffffffffffffff81111561107157611070610bac565b5b61107d87828801610e1c565b935050604061108e87828801610bfa565b925050606061109f87828801610e5a565b91505092959194509250565b6110b481610bd1565b82525050565b60006020820190506110cf60008301846110ab565b92915050565b7f55736572206e6f74207265676973746572656400000000000000000000000000600082015250565b600061110b601383610f45565b9150611116826110d5565b602082019050919050565b6000602082019050818103600083015261113a816110fe565b9050919050565b7f4e487b7100000000000000000000000000000000000000000000000000000000600052602260045260246000fd5b6000600282049050600182168061118857607f821691505b60208210810361119b5761119a611141565b5b50919050565b60008190508160005260206000209050919050565b60006020601f8301049050919050565b600082821b905092915050565b6000600883026112037fffffffffffffffffffffffffffffffffffffffffffffffffffffffffffffffff826111c6565b61120d86836111c6565b95508019841693508086168417925050509392505050565b6000819050919050565b6000819050919050565b600061125461124f61124a84611225565b61122f565b611225565b9050919050565b6000819050919050565b61126e83611239565b61128261127a8261125b565b8484546111d3565b825550505050565b600090565b61129761128a565b6112a2818484611265565b505050565b5b818110156112c6576112bb60008261128f565b6001810190506112a8565b5050565b601f82111561130b576112dc816111a1565b6112e5846111b6565b810160208510156112f4578190505b611308611300856111b6565b8301826112a7565b50505b505050565b600082821c905092915050565b600061132e60001984600802611310565b1980831691505092915050565b6000611347838361131d565b9150826002028217905092915050565b61136082610f3a565b67ffffffffffffffff81111561137957611378610d1f565b5b6113838254611170565b61138e8282856112ca565b600060209050601f8311600181146113c157600084156113af578287015190505b6113b9858261133b565b865550611421565b601f1984166113cf866111a1565b60005b828110156113f7578489015182556001820191506020850194506020810190506113d2565b868310156114145784890151611410601f89168261131d565b8355505b6001600288020188555050505b505050505050565b600060608201905081810360008301526114438186610f80565b905081810360208301526114578185610f80565b90506114666040830184610cda565b949350505050565b7f4f6e6c792061646d696e2063616e20706572666f726d2074686973206163746960008201527f6f6e000000000000000000000000000000000000000000000000000000000000602082015250565b60006114ca602283610f45565b91506114d58261146e565b604082019050919050565b600060208201905081810360008301526114f9816114bd565b9050919050565b6000815461150d81611170565b6115178186610f45565b9450600182166000811461153257600181146115485761157b565b60ff19831686528115156020028601935061157b565b611551856111a1565b60005b8381101561157357815481890152600182019150602081019050611554565b808801955050505b50505092915050565b6000606082019050818103600083015261159e8186611500565b905081810360208301526115b28185611500565b90506115c16040830184610cda565b949350505050565b7f5573657220616c72656164792072656769737465726564000000000000000000600082015250565b60006115ff601783610f45565b915061160a826115c9565b602082019050919050565b6000602082019050818103600083015261162e816115f2565b905091905056fea26469706673582212201c645c62b1868efe36c04bf46d3ecb3ee25e226abc326d873bc670c7c9469ccd64736f6c634300081b0033",
  "linkReferences": {},
  "deployedLinkReferences": {}
}