{
  "_format": "hh-sol-artifact-1",
  "contractName": "FarmProductListing",
  "sourceName": "contracts/ProductManagement.sol",
  "abi": [
    {
      "inputs": [],
      "stateMutability": "nonpayable",
      "type": "constructor"
    },
    {
      "anonymous": false,
      "inputs": [
        {
          "indexed": false,
          "internalType": "uint256",
          "name": "id",
          "type": "uint256"
        },
        {
          "indexed": false,
          "internalType": "string",
          "name": "name",
          "type": "string"
        },
        {
          "indexed": false,
          "internalType": "address",
          "name": "farmer",
          "type": "address"
        }
      ],
      "name": "ProductAdded",
      "type": "event"
    },
    {
      "anonymous": false,
      "inputs": [
        {
          "indexed": false,
          "internalType": "uint256",
          "name": "id",
          "type": "uint256"
        },
        {
          "indexed": false,
          "internalType": "string",
          "name": "name",
          "type": "string"
        },
        {
          "indexed": false,
          "internalType": "address",
          "name": "farmer",
          "type": "address"
        }
      ],
      "name": "ProductUpdated",
      "type": "event"
    },
    {
      "inputs": [
        {
          "internalType": "string",
          "name": "_name",
          "type": "string"
        },
        {
          "internalType": "string",
          "name": "_description",
          "type": "string"
        },
        {
          "internalType": "uint256",
          "name": "_price",
          "type": "uint256"
        },
        {
          "internalType": "uint256",
          "name": "_stock",
          "type": "uint256"
        },
        {
          "internalType": "string",
          "name": "_image",
          "type": "string"
        }
      ],
      "name": "addProduct",
      "outputs": [],
      "stateMutability": "nonpayable",
      "type": "function"
    },
    {
      "inputs": [
        {
          "internalType": "address",
          "name": "",
          "type": "address"
        },
        {
          "internalType": "uint256",
          "name": "",
          "type": "uint256"
        }
      ],
      "name": "farmerProducts",
      "outputs": [
        {
          "internalType": "uint256",
          "name": "",
          "type": "uint256"
        }
      ],
      "stateMutability": "view",
      "type": "function"
    },
    {
      "inputs": [],
      "name": "getAllProductIds",
      "outputs": [
        {
          "internalType": "uint256[]",
          "name": "",
          "type": "uint256[]"
        }
      ],
      "stateMutability": "view",
      "type": "function"
    },
    {
      "inputs": [],
      "name": "getAllProducts",
      "outputs": [
        {
          "components": [
            {
              "internalType": "uint256",
              "name": "id",
              "type": "uint256"
            },
            {
              "internalType": "string",
              "name": "name",
              "type": "string"
            },
            {
              "internalType": "string",
              "name": "description",
              "type": "string"
            },
            {
              "internalType": "uint256",
              "name": "price",
              "type": "uint256"
            },
            {
              "internalType": "address",
              "name": "farmer",
              "type": "address"
            },
            {
              "internalType": "uint256",
              "name": "stock",
              "type": "uint256"
            },
            {
              "internalType": "string",
              "name": "image",
              "type": "string"
            }
          ],
          "internalType": "struct FarmProductListing.Product[]",
          "name": "",
          "type": "tuple[]"
        }
      ],
      "stateMutability": "view",
      "type": "function"
    },
    {
      "inputs": [
        {
          "internalType": "uint256",
          "name": "_id",
          "type": "uint256"
        }
      ],
      "name": "getProductById",
      "outputs": [
        {
          "components": [
            {
              "internalType": "uint256",
              "name": "id",
              "type": "uint256"
            },
            {
              "internalType": "string",
              "name": "name",
              "type": "string"
            },
            {
              "internalType": "string",
              "name": "description",
              "type": "string"
            },
            {
              "internalType": "uint256",
              "name": "price",
              "type": "uint256"
            },
            {
              "internalType": "address",
              "name": "farmer",
              "type": "address"
            },
            {
              "internalType": "uint256",
              "name": "stock",
              "type": "uint256"
            },
            {
              "internalType": "string",
              "name": "image",
              "type": "string"
            }
          ],
          "internalType": "struct FarmProductListing.Product",
          "name": "",
          "type": "tuple"
        }
      ],
      "stateMutability": "view",
      "type": "function"
    },
    {
      "inputs": [
        {
          "internalType": "uint256",
          "name": "_id",
          "type": "uint256"
        }
      ],
      "name": "getProductDescription",
      "outputs": [
        {
          "internalType": "string",
          "name": "",
          "type": "string"
        }
      ],
      "stateMutability": "view",
      "type": "function"
    },
    {
      "inputs": [
        {
          "internalType": "uint256",
          "name": "_id",
          "type": "uint256"
        }
      ],
      "name": "getProductFarmer",
      "outputs": [
        {
          "internalType": "address",
          "name": "",
          "type": "address"
        }
      ],
      "stateMutability": "view",
      "type": "function"
    },
    {
      "inputs": [
        {
          "internalType": "uint256",
          "name": "_id",
          "type": "uint256"
        }
      ],
      "name": "getProductImage",
      "outputs": [
        {
          "internalType": "string",
          "name": "",
          "type": "string"
        }
      ],
      "stateMutability": "view",
      "type": "function"
    },
    {
      "inputs": [
        {
          "internalType": "uint256",
          "name": "_id",
          "type": "uint256"
        }
      ],
      "name": "getProductName",
      "outputs": [
        {
          "internalType": "string",
          "name": "",
          "type": "string"
        }
      ],
      "stateMutability": "view",
      "type": "function"
    },
    {
      "inputs": [
        {
          "internalType": "uint256",
          "name": "_id",
          "type": "uint256"
        }
      ],
      "name": "getProductPrice",
      "outputs": [
        {
          "internalType": "uint256",
          "name": "",
          "type": "uint256"
        }
      ],
      "stateMutability": "view",
      "type": "function"
    },
    {
      "inputs": [
        {
          "internalType": "uint256",
          "name": "_id",
          "type": "uint256"
        }
      ],
      "name": "getProductStock",
      "outputs": [
        {
          "internalType": "uint256",
          "name": "",
          "type": "uint256"
        }
      ],
      "stateMutability": "view",
      "type": "function"
    },
    {
      "inputs": [
        {
          "internalType": "address",
          "name": "_farmer",
          "type": "address"
        }
      ],
      "name": "getProductsByFarmer",
      "outputs": [
        {
          "components": [
            {
              "internalType": "uint256",
              "name": "id",
              "type": "uint256"
            },
            {
              "internalType": "string",
              "name": "name",
              "type": "string"
            },
            {
              "internalType": "string",
              "name": "description",
              "type": "string"
            },
            {
              "internalType": "uint256",
              "name": "price",
              "type": "uint256"
            },
            {
              "internalType": "address",
              "name": "farmer",
              "type": "address"
            },
            {
              "internalType": "uint256",
              "name": "stock",
              "type": "uint256"
            },
            {
              "internalType": "string",
              "name": "image",
              "type": "string"
            }
          ],
          "internalType": "struct FarmProductListing.Product[]",
          "name": "",
          "type": "tuple[]"
        }
      ],
      "stateMutability": "view",
      "type": "function"
    },
    {
      "inputs": [],
      "name": "getTotalOrders",
      "outputs": [
        {
          "internalType": "uint256",
          "name": "",
          "type": "uint256"
        }
      ],
      "stateMutability": "view",
      "type": "function"
    },
    {
      "inputs": [],
      "name": "getTotalProducts",
      "outputs": [
        {
          "internalType": "uint256",
          "name": "",
          "type": "uint256"
        }
      ],
      "stateMutability": "view",
      "type": "function"
    },
    {
      "inputs": [],
      "name": "orderCount",
      "outputs": [
        {
          "internalType": "uint256",
          "name": "",
          "type": "uint256"
        }
      ],
      "stateMutability": "view",
      "type": "function"
    },
    {
      "inputs": [],
      "name": "owner",
      "outputs": [
        {
          "internalType": "address",
          "name": "",
          "type": "address"
        }
      ],
      "stateMutability": "view",
      "type": "function"
    },
    {
      "inputs": [],
      "name": "productCount",
      "outputs": [
        {
          "internalType": "uint256",
          "name": "",
          "type": "uint256"
        }
      ],
      "stateMutability": "view",
      "type": "function"
    },
    {
      "inputs": [
        {
          "internalType": "uint256",
          "name": "",
          "type": "uint256"
        }
      ],
      "name": "products",
      "outputs": [
        {
          "internalType": "uint256",
          "name": "id",
          "type": "uint256"
        },
        {
          "internalType": "string",
          "name": "name",
          "type": "string"
        },
        {
          "internalType": "string",
          "name": "description",
          "type": "string"
        },
        {
          "internalType": "uint256",
          "name": "price",
          "type": "uint256"
        },
        {
          "internalType": "address",
          "name": "farmer",
          "type": "address"
        },
        {
          "internalType": "uint256",
          "name": "stock",
          "type": "uint256"
        },
        {
          "internalType": "string",
          "name": "image",
          "type": "string"
        }
      ],
      "stateMutability": "view",
      "type": "function"
    },
    {
      "inputs": [
        {
          "internalType": "uint256",
          "name": "_id",
          "type": "uint256"
        },
        {
          "internalType": "string",
          "name": "_name",
          "type": "string"
        },
        {
          "internalType": "string",
          "name": "_description",
          "type": "string"
        },
        {
          "internalType": "uint256",
          "name": "_price",
          "type": "uint256"
        },
        {
          "internalType": "uint256",
          "name": "_stock",
          "type": "uint256"
        },
        {
          "internalType": "string",
          "name": "_image",
          "type": "string"
        }
      ],
      "name": "updateProduct",
      "outputs": [],
      "stateMutability": "nonpayable",
      "type": "function"
    },
    {
      "stateMutability": "payable",
      "type": "receive"
    }
  ],
  "bytecode": "0x6080604052348015600f57600080fd5b5033600460006101000a81548173ffffffffffffffffffffffffffffffffffffffff021916908373ffffffffffffffffffffffffffffffffffffffff160217905550612f5b806100606000396000f3fe6080604052600436106101185760003560e01c8063663c01af116100a0578063dfe6830511610064578063dfe6830514610425578063e0f6ef8714610462578063e7bf7dfc1461048d578063ec90a7b0146104ca578063fece87721461050757610158565b8063663c01af146103265780636daf0fbb146103515780637acc0b201461037a5780638da5cb5b146103bd5780639e62e795146103e857610158565b80633b9a7aec116100e75780633b9a7aec1461021b5780633f70c2b4146102585780634cce2df9146102955780634da47d37146102d2578063570aea8a146102fb57610158565b806302ee3a521461015d5780632453ffa814610188578063375f16a7146101b3578063390a98df146101de57610158565b36610158576040517f08c379a000000000000000000000000000000000000000000000000000000000815260040161014f90611dbe565b60405180910390fd5b600080fd5b34801561016957600080fd5b50610172610544565b60405161017f9190612034565b60405180910390f35b34801561019457600080fd5b5061019d61083c565b6040516101aa9190612065565b60405180910390f35b3480156101bf57600080fd5b506101c8610842565b6040516101d59190612065565b60405180910390f35b3480156101ea57600080fd5b50610205600480360381019061020091906120c0565b61084c565b60405161021291906120fc565b60405180910390f35b34801561022757600080fd5b50610242600480360381019061023d91906120c0565b6108de565b60405161024f9190612065565b60405180910390f35b34801561026457600080fd5b5061027f600480360381019061027a91906120c0565b610950565b60405161028c91906121c1565b60405180910390f35b3480156102a157600080fd5b506102bc60048036038101906102b791906120c0565b610bf7565b6040516102c9919061221c565b60405180910390f35b3480156102de57600080fd5b506102f960048036038101906102f49190612373565b610cf1565b005b34801561030757600080fd5b5061031061105a565b60405161031d9190612065565b60405180910390f35b34801561033257600080fd5b5061033b611064565b6040516103489190612503565b60405180910390f35b34801561035d57600080fd5b5061037860048036038101906103739190612525565b61110c565b005b34801561038657600080fd5b506103a1600480360381019061039c91906120c0565b61142c565b6040516103b497969594939291906125f4565b60405180910390f35b3480156103c957600080fd5b506103d2611626565b6040516103df91906120fc565b60405180910390f35b3480156103f457600080fd5b5061040f600480360381019061040a91906120c0565b61164c565b60405161041c919061221c565b60405180910390f35b34801561043157600080fd5b5061044c600480360381019061044791906120c0565b611746565b604051610459919061221c565b60405180910390f35b34801561046e57600080fd5b50610477611840565b6040516104849190612065565b60405180910390f35b34801561049957600080fd5b506104b460048036038101906104af91906120c0565b611846565b6040516104c19190612065565b60405180910390f35b3480156104d657600080fd5b506104f160048036038101906104ec91906126a4565b6118b8565b6040516104fe9190612034565b60405180910390f35b34801561051357600080fd5b5061052e600480360381019061052991906126d1565b611cb7565b60405161053b9190612065565b60405180910390f35b6060600060025467ffffffffffffffff81111561056457610563612248565b5b60405190808252806020026020018201604052801561059d57816020015b61058a611ce8565b8152602001906001900390816105825790505b5090506000600190505b6002548111610834576000808281526020019081526020016000206040518060e0016040529081600082015481526020016001820180546105e790612740565b80601f016020809104026020016040519081016040528092919081815260200182805461061390612740565b80156106605780601f1061063557610100808354040283529160200191610660565b820191906000526020600020905b81548152906001019060200180831161064357829003601f168201915b5050505050815260200160028201805461067990612740565b80601f01602080910402602001604051908101604052809291908181526020018280546106a590612740565b80156106f25780601f106106c7576101008083540402835291602001916106f2565b820191906000526020600020905b8154815290600101906020018083116106d557829003601f168201915b50505050508152602001600382015481526020016004820160009054906101000a900473ffffffffffffffffffffffffffffffffffffffff1673ffffffffffffffffffffffffffffffffffffffff1673ffffffffffffffffffffffffffffffffffffffff1681526020016005820154815260200160068201805461077590612740565b80601f01602080910402602001604051908101604052809291908181526020018280546107a190612740565b80156107ee5780601f106107c3576101008083540402835291602001916107ee565b820191906000526020600020905b8154815290600101906020018083116107d157829003601f168201915b5050505050815250508260018361080591906127a0565b81518110610816576108156127d4565b5b6020026020010181905250808061082c90612803565b9150506105a7565b508091505090565b60035481565b6000600354905090565b60008160008111801561086157506002548111155b6108a0576040517f08c379a000000000000000000000000000000000000000000000000000000000815260040161089790612897565b60405180910390fd5b60008084815260200190815260200160002060040160009054906101000a900473ffffffffffffffffffffffffffffffffffffffff16915050919050565b6000816000811180156108f357506002548111155b610932576040517f08c379a000000000000000000000000000000000000000000000000000000000815260040161092990612897565b60405180910390fd5b60008084815260200190815260200160002060050154915050919050565b610958611ce8565b60008211801561096a57506002548211155b6109a9576040517f08c379a00000000000000000000000000000000000000000000000000000000081526004016109a090612897565b60405180910390fd5b6000808381526020019081526020016000206040518060e0016040529081600082015481526020016001820180546109e090612740565b80601f0160208091040260200160405190810160405280929190818152602001828054610a0c90612740565b8015610a595780601f10610a2e57610100808354040283529160200191610a59565b820191906000526020600020905b815481529060010190602001808311610a3c57829003601f168201915b50505050508152602001600282018054610a7290612740565b80601f0160208091040260200160405190810160405280929190818152602001828054610a9e90612740565b8015610aeb5780601f10610ac057610100808354040283529160200191610aeb565b820191906000526020600020905b815481529060010190602001808311610ace57829003601f168201915b50505050508152602001600382015481526020016004820160009054906101000a900473ffffffffffffffffffffffffffffffffffffffff1673ffffffffffffffffffffffffffffffffffffffff1673ffffffffffffffffffffffffffffffffffffffff16815260200160058201548152602001600682018054610b6e90612740565b80601f0160208091040260200160405190810160405280929190818152602001828054610b9a90612740565b8015610be75780601f10610bbc57610100808354040283529160200191610be7565b820191906000526020600020905b815481529060010190602001808311610bca57829003601f168201915b5050505050815250509050919050565b606081600081118015610c0c57506002548111155b610c4b576040517f08c379a0000000000000000000000000000000000000000000000000000000008152600401610c4290612897565b60405180910390fd5b6000808481526020019081526020016000206002018054610c6b90612740565b80601f0160208091040260200160405190810160405280929190818152602001828054610c9790612740565b8015610ce45780601f10610cb957610100808354040283529160200191610ce4565b820191906000526020600020905b815481529060010190602001808311610cc757829003601f168201915b5050505050915050919050565b85600081118015610d0457506002548111155b610d43576040517f08c379a0000000000000000000000000000000000000000000000000000000008152600401610d3a90612897565b60405180910390fd5b86600460009054906101000a900473ffffffffffffffffffffffffffffffffffffffff1673ffffffffffffffffffffffffffffffffffffffff163373ffffffffffffffffffffffffffffffffffffffff161480610e00575060008082815260200190815260200160002060040160009054906101000a900473ffffffffffffffffffffffffffffffffffffffff1673ffffffffffffffffffffffffffffffffffffffff163373ffffffffffffffffffffffffffffffffffffffff16145b610e3f576040517f08c379a0000000000000000000000000000000000000000000000000000000008152600401610e369061294f565b60405180910390fd5b6000875111610e83576040517f08c379a0000000000000000000000000000000000000000000000000000000008152600401610e7a906129bb565b60405180910390fd5b6000865111610ec7576040517f08c379a0000000000000000000000000000000000000000000000000000000008152600401610ebe90612a4d565b60405180910390fd5b60008511610f0a576040517f08c379a0000000000000000000000000000000000000000000000000000000008152600401610f0190612ab9565b60405180910390fd5b6000841015610f4e576040517f08c379a0000000000000000000000000000000000000000000000000000000008152600401610f4590612b4b565b60405180910390fd5b6000835111610f92576040517f08c379a0000000000000000000000000000000000000000000000000000000008152600401610f8990612bdd565b60405180910390fd5b60008060008a8152602001908152602001600020905087816001019081610fb99190612da9565b5086816002019081610fcb9190612da9565b5085816003018190555084816005018190555083816006019081610fef9190612da9565b507f6599e0074698ba3478733fbb2dac5ef719075c18d140e6c6ad768d8f970b22c589898360040160009054906101000a900473ffffffffffffffffffffffffffffffffffffffff1660405161104793929190612e7b565b60405180910390a1505050505050505050565b6000600254905090565b6060600060025467ffffffffffffffff81111561108457611083612248565b5b6040519080825280602002602001820160405280156110b25781602001602082028036833780820191505090505b5090506000600190505b60025481116111045780826001836110d491906127a0565b815181106110e5576110e46127d4565b5b60200260200101818152505080806110fc90612803565b9150506110bc565b508091505090565b6000855111611150576040517f08c379a0000000000000000000000000000000000000000000000000000000008152600401611147906129bb565b60405180910390fd5b6000845111611194576040517f08c379a000000000000000000000000000000000000000000000000000000000815260040161118b90612a4d565b60405180910390fd5b600083116111d7576040517f08c379a00000000000000000000000000000000000000000000000000000000081526004016111ce90612ab9565b60405180910390fd5b600082101561121b576040517f08c379a000000000000000000000000000000000000000000000000000000000815260040161121290612b4b565b60405180910390fd5b600081511161125f576040517f08c379a000000000000000000000000000000000000000000000000000000000815260040161125690612bdd565b60405180910390fd5b6002600081548092919061127290612803565b91905055506040518060e0016040528060025481526020018681526020018581526020018481526020013373ffffffffffffffffffffffffffffffffffffffff1681526020018381526020018281525060008060025481526020019081526020016000206000820151816000015560208201518160010190816112f59190612da9565b50604082015181600201908161130b9190612da9565b506060820151816003015560808201518160040160006101000a81548173ffffffffffffffffffffffffffffffffffffffff021916908373ffffffffffffffffffffffffffffffffffffffff16021790555060a0820151816005015560c082015181600601908161137c9190612da9565b50905050600160003373ffffffffffffffffffffffffffffffffffffffff1673ffffffffffffffffffffffffffffffffffffffff16815260200190815260200160002060025490806001815401808255809150506001900390600052602060002001600090919091909150557f8193aac6f424277fc758106db15a98f50eaf850bfd0b9178fbfa308e153b0495600254863360405161141d93929190612e7b565b60405180910390a15050505050565b600060205280600052604060002060009150905080600001549080600101805461145590612740565b80601f016020809104026020016040519081016040528092919081815260200182805461148190612740565b80156114ce5780601f106114a3576101008083540402835291602001916114ce565b820191906000526020600020905b8154815290600101906020018083116114b157829003601f168201915b5050505050908060020180546114e390612740565b80601f016020809104026020016040519081016040528092919081815260200182805461150f90612740565b801561155c5780601f106115315761010080835404028352916020019161155c565b820191906000526020600020905b81548152906001019060200180831161153f57829003601f168201915b5050505050908060030154908060040160009054906101000a900473ffffffffffffffffffffffffffffffffffffffff16908060050154908060060180546115a390612740565b80601f01602080910402602001604051908101604052809291908181526020018280546115cf90612740565b801561161c5780601f106115f15761010080835404028352916020019161161c565b820191906000526020600020905b8154815290600101906020018083116115ff57829003601f168201915b5050505050905087565b600460009054906101000a900473ffffffffffffffffffffffffffffffffffffffff1681565b60608160008111801561166157506002548111155b6116a0576040517f08c379a000000000000000000000000000000000000000000000000000000000815260040161169790612897565b60405180910390fd5b60008084815260200190815260200160002060010180546116c090612740565b80601f01602080910402602001604051908101604052809291908181526020018280546116ec90612740565b80156117395780601f1061170e57610100808354040283529160200191611739565b820191906000526020600020905b81548152906001019060200180831161171c57829003601f168201915b5050505050915050919050565b60608160008111801561175b57506002548111155b61179a576040517f08c379a000000000000000000000000000000000000000000000000000000000815260040161179190612897565b60405180910390fd5b60008084815260200190815260200160002060060180546117ba90612740565b80601f01602080910402602001604051908101604052809291908181526020018280546117e690612740565b80156118335780601f1061180857610100808354040283529160200191611833565b820191906000526020600020905b81548152906001019060200180831161181657829003601f168201915b5050505050915050919050565b60025481565b60008160008111801561185b57506002548111155b61189a576040517f08c379a000000000000000000000000000000000000000000000000000000000815260040161189190612897565b60405180910390fd5b60008084815260200190815260200160002060030154915050919050565b6060600073ffffffffffffffffffffffffffffffffffffffff168273ffffffffffffffffffffffffffffffffffffffff1603611929576040517f08c379a000000000000000000000000000000000000000000000000000000000815260040161192090612f05565b60405180910390fd5b6000600160008473ffffffffffffffffffffffffffffffffffffffff1673ffffffffffffffffffffffffffffffffffffffff1681526020019081526020016000208054806020026020016040519081016040528092919081815260200182805480156119b457602002820191906000526020600020905b8154815260200190600101908083116119a0575b505050505090506000815167ffffffffffffffff8111156119d8576119d7612248565b5b604051908082528060200260200182016040528015611a1157816020015b6119fe611ce8565b8152602001906001900390816119f65790505b50905060005b8251811015611cac57600080848381518110611a3657611a356127d4565b5b602002602001015181526020019081526020016000206040518060e001604052908160008201548152602001600182018054611a7190612740565b80601f0160208091040260200160405190810160405280929190818152602001828054611a9d90612740565b8015611aea5780601f10611abf57610100808354040283529160200191611aea565b820191906000526020600020905b815481529060010190602001808311611acd57829003601f168201915b50505050508152602001600282018054611b0390612740565b80601f0160208091040260200160405190810160405280929190818152602001828054611b2f90612740565b8015611b7c5780601f10611b5157610100808354040283529160200191611b7c565b820191906000526020600020905b815481529060010190602001808311611b5f57829003601f168201915b50505050508152602001600382015481526020016004820160009054906101000a900473ffffffffffffffffffffffffffffffffffffffff1673ffffffffffffffffffffffffffffffffffffffff1673ffffffffffffffffffffffffffffffffffffffff16815260200160058201548152602001600682018054611bff90612740565b80601f0160208091040260200160405190810160405280929190818152602001828054611c2b90612740565b8015611c785780601f10611c4d57610100808354040283529160200191611c78565b820191906000526020600020905b815481529060010190602001808311611c5b57829003601f168201915b505050505081525050828281518110611c9457611c936127d4565b5b60200260200101819052508080600101915050611a17565b508092505050919050565b60016020528160005260406000208181548110611cd357600080fd5b90600052602060002001600091509150505481565b6040518060e0016040528060008152602001606081526020016060815260200160008152602001600073ffffffffffffffffffffffffffffffffffffffff16815260200160008152602001606081525090565b600082825260208201905092915050565b7f5468697320636f6e747261637420646f6573206e6f742061636365707420706160008201527f796d656e74730000000000000000000000000000000000000000000000000000602082015250565b6000611da8602683611d3b565b9150611db382611d4c565b604082019050919050565b60006020820190508181036000830152611dd781611d9b565b9050919050565b600081519050919050565b600082825260208201905092915050565b6000819050602082019050919050565b6000819050919050565b611e1d81611e0a565b82525050565b600081519050919050565b600082825260208201905092915050565b60005b83811015611e5d578082015181840152602081019050611e42565b60008484015250505050565b6000601f19601f8301169050919050565b6000611e8582611e23565b611e8f8185611e2e565b9350611e9f818560208601611e3f565b611ea881611e69565b840191505092915050565b600073ffffffffffffffffffffffffffffffffffffffff82169050919050565b6000611ede82611eb3565b9050919050565b611eee81611ed3565b82525050565b600060e083016000830151611f0c6000860182611e14565b5060208301518482036020860152611f248282611e7a565b91505060408301518482036040860152611f3e8282611e7a565b9150506060830151611f536060860182611e14565b506080830151611f666080860182611ee5565b5060a0830151611f7960a0860182611e14565b5060c083015184820360c0860152611f918282611e7a565b9150508091505092915050565b6000611faa8383611ef4565b905092915050565b6000602082019050919050565b6000611fca82611dde565b611fd48185611de9565b935083602082028501611fe685611dfa565b8060005b8581101561202257848403895281516120038582611f9e565b945061200e83611fb2565b925060208a01995050600181019050611fea565b50829750879550505050505092915050565b6000602082019050818103600083015261204e8184611fbf565b905092915050565b61205f81611e0a565b82525050565b600060208201905061207a6000830184612056565b92915050565b6000604051905090565b600080fd5b600080fd5b61209d81611e0a565b81146120a857600080fd5b50565b6000813590506120ba81612094565b92915050565b6000602082840312156120d6576120d561208a565b5b60006120e4848285016120ab565b91505092915050565b6120f681611ed3565b82525050565b600060208201905061211160008301846120ed565b92915050565b600060e08301600083015161212f6000860182611e14565b50602083015184820360208601526121478282611e7a565b915050604083015184820360408601526121618282611e7a565b91505060608301516121766060860182611e14565b5060808301516121896080860182611ee5565b5060a083015161219c60a0860182611e14565b5060c083015184820360c08601526121b48282611e7a565b9150508091505092915050565b600060208201905081810360008301526121db8184612117565b905092915050565b60006121ee82611e23565b6121f88185611d3b565b9350612208818560208601611e3f565b61221181611e69565b840191505092915050565b6000602082019050818103600083015261223681846121e3565b905092915050565b600080fd5b600080fd5b7f4e487b7100000000000000000000000000000000000000000000000000000000600052604160045260246000fd5b61228082611e69565b810181811067ffffffffffffffff8211171561229f5761229e612248565b5b80604052505050565b60006122b2612080565b90506122be8282612277565b919050565b600067ffffffffffffffff8211156122de576122dd612248565b5b6122e782611e69565b9050602081019050919050565b82818337600083830152505050565b6000612316612311846122c3565b6122a8565b90508281526020810184848401111561233257612331612243565b5b61233d8482856122f4565b509392505050565b600082601f83011261235a5761235961223e565b5b813561236a848260208601612303565b91505092915050565b60008060008060008060c087890312156123905761238f61208a565b5b600061239e89828a016120ab565b965050602087013567ffffffffffffffff8111156123bf576123be61208f565b5b6123cb89828a01612345565b955050604087013567ffffffffffffffff8111156123ec576123eb61208f565b5b6123f889828a01612345565b945050606061240989828a016120ab565b935050608061241a89828a016120ab565b92505060a087013567ffffffffffffffff81111561243b5761243a61208f565b5b61244789828a01612345565b9150509295509295509295565b600081519050919050565b600082825260208201905092915050565b6000819050602082019050919050565b600061248c8383611e14565b60208301905092915050565b6000602082019050919050565b60006124b082612454565b6124ba818561245f565b93506124c583612470565b8060005b838110156124f65781516124dd8882612480565b97506124e883612498565b9250506001810190506124c9565b5085935050505092915050565b6000602082019050818103600083015261251d81846124a5565b905092915050565b600080600080600060a086880312156125415761254061208a565b5b600086013567ffffffffffffffff81111561255f5761255e61208f565b5b61256b88828901612345565b955050602086013567ffffffffffffffff81111561258c5761258b61208f565b5b61259888828901612345565b94505060406125a9888289016120ab565b93505060606125ba888289016120ab565b925050608086013567ffffffffffffffff8111156125db576125da61208f565b5b6125e788828901612345565b9150509295509295909350565b600060e082019050612609600083018a612056565b818103602083015261261b81896121e3565b9050818103604083015261262f81886121e3565b905061263e6060830187612056565b61264b60808301866120ed565b61265860a0830185612056565b81810360c083015261266a81846121e3565b905098975050505050505050565b61268181611ed3565b811461268c57600080fd5b50565b60008135905061269e81612678565b92915050565b6000602082840312156126ba576126b961208a565b5b60006126c88482850161268f565b91505092915050565b600080604083850312156126e8576126e761208a565b5b60006126f68582860161268f565b9250506020612707858286016120ab565b9150509250929050565b7f4e487b7100000000000000000000000000000000000000000000000000000000600052602260045260246000fd5b6000600282049050600182168061275857607f821691505b60208210810361276b5761276a612711565b5b50919050565b7f4e487b7100000000000000000000000000000000000000000000000000000000600052601160045260246000fd5b60006127ab82611e0a565b91506127b683611e0a565b92508282039050818111156127ce576127cd612771565b5b92915050565b7f4e487b7100000000000000000000000000000000000000000000000000000000600052603260045260246000fd5b600061280e82611e0a565b91507fffffffffffffffffffffffffffffffffffffffffffffffffffffffffffffffff82036128405761283f612771565b5b600182019050919050565b7f496e76616c69642070726f647563742049440000000000000000000000000000600082015250565b6000612881601283611d3b565b915061288c8261284b565b602082019050919050565b600060208201905081810360008301526128b081612874565b9050919050565b7f4163636573732064656e6965643a204f6e6c79206f776e6572206f722070726f60008201527f64756374206661726d65722063616e20706572666f726d20746869732061637460208201527f696f6e0000000000000000000000000000000000000000000000000000000000604082015250565b6000612939604383611d3b565b9150612944826128b7565b606082019050919050565b600060208201905081810360008301526129688161292c565b9050919050565b7f50726f64756374206e616d652063616e6e6f7420626520656d70747900000000600082015250565b60006129a5601c83611d3b565b91506129b08261296f565b602082019050919050565b600060208201905081810360008301526129d481612998565b9050919050565b7f50726f64756374206465736372697074696f6e2063616e6e6f7420626520656d60008201527f7074790000000000000000000000000000000000000000000000000000000000602082015250565b6000612a37602383611d3b565b9150612a42826129db565b604082019050919050565b60006020820190508181036000830152612a6681612a2a565b9050919050565b7f5072696365206d7573742062652067726561746572207468616e203000000000600082015250565b6000612aa3601c83611d3b565b9150612aae82612a6d565b602082019050919050565b60006020820190508181036000830152612ad281612a96565b9050919050565b7f53746f636b206d7573742062652061206e6f6e2d6e65676174697665206e756d60008201527f6265720000000000000000000000000000000000000000000000000000000000602082015250565b6000612b35602383611d3b565b9150612b4082612ad9565b604082019050919050565b60006020820190508181036000830152612b6481612b28565b9050919050565b7f50726f6475637420696d6167652055524c2063616e6e6f7420626520656d707460008201527f7900000000000000000000000000000000000000000000000000000000000000602082015250565b6000612bc7602183611d3b565b9150612bd282612b6b565b604082019050919050565b60006020820190508181036000830152612bf681612bba565b9050919050565b60008190508160005260206000209050919050565b60006020601f8301049050919050565b600082821b905092915050565b600060088302612c5f7fffffffffffffffffffffffffffffffffffffffffffffffffffffffffffffffff82612c22565b612c698683612c22565b95508019841693508086168417925050509392505050565b6000819050919050565b6000612ca6612ca1612c9c84611e0a565b612c81565b611e0a565b9050919050565b6000819050919050565b612cc083612c8b565b612cd4612ccc82612cad565b848454612c2f565b825550505050565b600090565b612ce9612cdc565b612cf4818484612cb7565b505050565b5b81811015612d1857612d0d600082612ce1565b600181019050612cfa565b5050565b601f821115612d5d57612d2e81612bfd565b612d3784612c12565b81016020851015612d46578190505b612d5a612d5285612c12565b830182612cf9565b50505b505050565b600082821c905092915050565b6000612d8060001984600802612d62565b1980831691505092915050565b6000612d998383612d6f565b9150826002028217905092915050565b612db282611e23565b67ffffffffffffffff811115612dcb57612dca612248565b5b612dd58254612740565b612de0828285612d1c565b600060209050601f831160018114612e135760008415612e01578287015190505b612e0b8582612d8d565b865550612e73565b601f198416612e2186612bfd565b60005b82811015612e4957848901518255600182019150602085019450602081019050612e24565b86831015612e665784890151612e62601f891682612d6f565b8355505b6001600288020188555050505b505050505050565b6000606082019050612e906000830186612056565b8181036020830152612ea281856121e3565b9050612eb160408301846120ed565b949350505050565b7f496e76616c6964206661726d6572206164647265737300000000000000000000600082015250565b6000612eef601683611d3b565b9150612efa82612eb9565b602082019050919050565b60006020820190508181036000830152612f1e81612ee2565b905091905056fea26469706673582212205f155c65987b011be971c12ea62c38c34bdf5065b117a045c4a17fc80cb897a864736f6c634300081b0033",
  "linkReferences": {},
  "deployedLinkReferences": {}
}